:100000000C942A000C9434000C9434000C943400AA
:100010000C9434000C9434000C9434000C94340090
:100020000C9434000C9434000C9434000C94340080
:100030000C9434000C9434000C9434000C94340070
:100040000C9434000C9434000C9434000C94340060
:100050000C94340011241FBECFE5D4E0DEBFCDBF29
:100060000E9480000C946B030C9400005F9BFECFF9
:100070008CB190E008955D9BFECF8CB908954F92AE
:100080005F926F927F92AF92BF92CF92DF92EF9288
:10009000FF920F931F93CF93DF93CDB7DEB7290164
:1000A0003A019B01AC012419350946095709898990
:1000B0009A89AB89BC89BC01CD016A197B098C097D
:1000C0009D090E940003A8019701241935094609DA
:1000D00057090E941003CA01B9016A0D7B1D8C1DCE
:1000E0009D1DDF91CF911F910F91FF90EF90DF90B9
:1000F000CF90BF90AF907F906F905F904F9008959A
:10010000CF93DF9300D000D0CDB7DEB783B7896639
:1001100083BF87B38B6087BB85B5896685BD81B397
:10012000846881BBC098929882E08BB910BC8FEF35
:1001300089B980E18AB986E880BD00E012E086EAEC
:10014000882E85E0982EA12CB12C0E943600419774
:1001500009F094C00E9436009C838B830E94360075
:10016000D82E0E943600819709F088C00E94360080
:100170007C010E943600DA8219822B813C81498100
:100180005A81242B352B32503C832B83382E212C43
:10019000E228F328B8016E197F09072E000C880B9E
:1001A000990B0E94070224EF3DEF44E35FE30E94B6
:1001B00093022B013C012B813C81B901330F880B49
:1001C000990B0E94070224EF3DEF44E35FE30E9496
:1001D0009302A30192010E9463010E94CF01CB010F
:1001E000770FAA0BBB0B9C01AD012D523D4F4F4F1A
:1001F0005F4FAEEFB1E00E942F03A50194010E9472
:10020000100369017A018FEFC81AD108E108F108DB
:100210002B813C81319521953109B901330F880B30
:10022000990B0E94070224EF3DEF44E35FE30E9435
:100230009302A30192010E9463010E94CF01CB01AE
:10024000770FAA0BBB0B9C01AD012D523D4F4F4FB9
:100250005F4FAEEFB1E00E942F03A50194010E9411
:100260001003BA01A9014F5F510961097109C60163
:100270004396879750F4C12CD12C07C01CBE13BCE9
:1002800082B3887F82BBC09860CFCA0143968797AC
:1002900010F09A0102C020E030E01C141D041CF490
:1002A000CCBEC09A03C0C194CCBEC098121613062F
:1002B0001CF423BD929A49CF219523BD82B3887F38
:1002C00082BB43CF5058BB27AA270E947A010C94C7
:1002D00059020E944B0238F00E94520220F039F479
:1002E0009F3F19F426F40C9448020EF4E095E7FBC6
:1002F0000C944202E92F0E946A0258F3BA1762076F
:1003000073078407950720F079F4A6F50C948C0206
:100310000EF4E0950B2EBA2FA02D0B01B901900120
:100320000C01CA01A0011124FF27591B99F0593F64
:1003300050F4503E68F11A16F040A22F232F342FAC
:100340004427585FF3CF469537952795A795F040FA
:100350005395C9F77EF41F16BA0B620B730B840B0F
:10036000BAF09150A1F0FF0FBB1F661F771F881FC7
:10037000C2F70EC0BA0F621F731F841F48F487951F
:1003800077956795B795F7959E3F08F0B0CF939511
:10039000880F08F09927EE0F9795879508950E948A
:1003A000D6016894B1110C948D0208950E947202D6
:1003B00088F09F5798F0B92F9927B751B0F0E1F026
:1003C000660F771F881F991F1AF0BA95C9F714C0D6
:1003D000B13091F00E948C02B1E008950C948C022F
:1003E000672F782F8827B85F39F0B93FCCF386950F
:1003F00077956795B395D9F73EF49095809570956C
:1004000061957F4F8F4F9F4F0895E89409C097FBE8
:100410003EF490958095709561957F4F8F4F9F4FDB
:100420009923A9F0F92F96E9BB279395F69587951F
:1004300077956795B795F111F8CFFAF4BB0F11F4E2
:1004400060FF1BC06F5F7F4F8F4F9F4F16C0882389
:1004500011F096E911C0772321F09EE8872F762FBF
:1004600005C0662371F096E8862F70E060E02AF000
:100470009A95660F771F881FDAF7880F96958795EC
:1004800097F9089597F99F6780E870E060E0089514
:100490009FEF80EC089500240A941616170618069C
:1004A0000906089500240A94121613061406050678
:1004B0000895092E0394000C11F4882352F0BB0F09
:1004C00040F4BF2B11F460FF04C06F5F7F4F8F4F6C
:1004D0009F4F089557FD9058440F551F59F05F3FA7
:1004E00071F04795880F97FB991F61F09F3F79F056
:1004F00087950895121613061406551FF2CF4695D8
:10050000F1DF08C0161617061806991FF1CF869559
:100510007105610508940895E894BB27662777273D
:10052000CB0197F908950E94A6020C9459020E94EB
:100530004B0238F00E94520220F0952311F00C94E7
:1005400042020C94480211240C948D020E946A020B
:1005500070F3959FC1F3950F50E0551F629FF00116
:10056000729FBB27F00DB11D639FAA27F00DB11D2F
:10057000AA1F649F6627B00DA11D661F829F2227B8
:10058000B00DA11D621F739FB00DA11D621F839F3F
:10059000A00D611D221F749F3327A00D611D231F15
:1005A000849F600D211D822F762F6A2F11249F5763
:1005B00050409AF0F1F088234AF0EE0FFF1FBB1F66
:1005C000661F771F881F91505040A9F79E3F510525
:1005D00080F00C9442020C948D025F3FE4F3983E4D
:1005E000D4F3869577956795B795F795E7959F5FCF
:1005F000C1F7FE2B880F911D9695879597F9089561
:10060000DB018F939F930E942F03BF91AF91A29F15
:10061000800D911DA39F900DB29F900D1124089500
:10062000052E97FB1EF400940E94270357FD07D068
:100630000E943A0307FC03D04EF40C942703509514
:100640004095309521953F4F4F4F5F4F08959095BE
:100650008095709561957F4F8F4F9F4F08950E94B1
:100660005C03A59F900DB49F900DA49F800D911DDC
:1006700011240895A1E21A2EAA1BBB1BFD010DC077
:10068000AA1FBB1FEE1FFF1FA217B307E407F50742
:1006900020F0A21BB30BE40BF50B661F771F881F1E
:1006A000991F1A9469F760957095809590959B01B4
:1006B000AC01BD01CF010895A29FB001B39FC0015D
:1006C000A39F700D811D1124911DB29F700D811D7E
:0A06D0001124911D0895F894FFCF46
:00000001FF
