:100000000C942A000C9434000C9434000C943400AA
:100010000C9434000C9434000C9434000C94340090
:100020000C9434000C9434000C9434000C94340080
:100030000C9434000C9434000C9434000C94340070
:100040000C9434000C9434000C9434000C94340060
:100050000C94340011241FBECFE5D4E0DEBFCDBF29
:100060000E94E3010C94E7060C9400005F9BFECF16
:100070008CB190E008955D9BFECF8CB908954F92AE
:100080005F926F927F92AF92BF92CF92DF92EF9288
:10009000FF920F931F93CF93DF93CDB7DEB72897CF
:1000A0000FB6F894DEBF0FBECDBF29013A01ED8235
:1000B000FE820F8318870E94260469837A838B83CC
:1000C0009C83A6019501698D7A8D8B8D9C8D0E94F4
:1000D00026049B01AC0169817A818B819C810E94FD
:1000E000F70569837A838B839C83A3019201C801FE
:1000F000B7010E9426049B01AC0169817A818B8142
:100100009C810E949804A60195010E9427042896CC
:100110000FB6F894DEBF0FBECDBFDF91CF911F9118
:100120000F91FF90EF90DF90CF90BF90AF907F90B6
:100130006F905F904F9008954F925F926F927F9271
:100140008F929F92AF92BF92EF92FF920F931F9365
:100150002B013C0149015A01CA01B9010E94F7056E
:1001600020E030E040E05FE30E94F7059B01AC0136
:1001700060E070E080E89FE30E9426040E946A0627
:10018000A30192010E94F705F801608371838283C5
:100190009383A3019201C301B2010E94F70520E0FD
:1001A00030E040E05FE30E94F7059B01AC0160E0B6
:1001B00070E080E89FE30E9426040E946A069B018B
:1001C000AC01C501B4010E94F705F701608371839A
:1001D000828393831F910F91FF90EF90BF90AF9018
:1001E0009F908F907F906F905F904F9008954F9267
:1001F0005F926F927F928F929F92AF92BF92CF92B7
:10020000DF92EF92FF920F931F93CF93DF93CDB7BF
:10021000DEB72E970FB6F894DEBF0FBECDBF4B01F1
:100220005C0129013A01FE86ED869B01AC010E942A
:10023000F7056B017C01A3019201C301B2010E9489
:10024000F70569837A838B839C8320E030E040E06C
:1002500050E4C701B6010E94270429813A814B81ED
:100260005C810E9426046D837E838F839887A7011B
:10027000960160E070E080E090E40E94260429810D
:100280003A814B815C810E9427046B017C0123EF42
:1002900034E045E350E4C501B4010E94F7054B0189
:1002A0005C0123EF34E045E350E4C301B2010E9456
:1002B000F70569837A838B839C83A50194016D8103
:1002C0007E818F8198850E9427040E946A06698733
:1002D0007A878B879C87A50194016D817E818F81B0
:1002E00098850E9426040E946A062B013C0120E0AA
:1002F00030E040E05FE369857A858B859C850E94CC
:10030000F7054B015C0120E030E040E05FE3C30112
:10031000B2010E94F7059B01AC01C501B4010E9426
:100320002604F801608371838283938329813A8153
:100330004B815C81C701B6010E9427040E946A06B6
:100340004B015C0129813A814B815C81C701B60177
:100350000E9426040E946A062B013C0120E030E046
:1003600040E05FE3C501B4010E94F7056B017C0129
:1003700020E030E040E05FE3C301B2010E94F705F6
:100380009B01AC01C701B6010E942604ED85FE85E4
:1003900060837183828393832E960FB6F894DEBFB9
:1003A0000FBECDBFDF91CF911F910F91FF90EF90C6
:1003B000DF90CF90BF90AF909F908F907F906F9085
:1003C0005F904F900895CF93DF93CDB7DEB7289716
:1003D0000FB6F894DEBF0FBECDBF83B7896683BF6B
:1003E00087B38B6087BB85B5896685BD81B380691E
:1003F00081BBC098949882E08BB910BC81E089B928
:1004000080E18AB986E880BD6AE0262E312C0E9400
:1004100036008136910509F058C004E010E058EE2E
:10042000E52E53E0F52E812C912C54010E943600CC
:10043000C0978E9DB0018F9D700D9E9D700D1124F3
:10044000072E000C880B990B0E9442059B01AC0102
:10045000C501B4010E9427044B015C01C701B10131
:100460000E94BF067B010150110901F70E9436006E
:100470008236910551F504E010E048EEE42E43E0A9
:10048000F42E412C512C32010E943600C0978E9DD3
:10049000B0018F9D700D9E9D700D1124072E000CD4
:1004A000880B990B0E9442059B01AC01C301B2016C
:1004B0000E9427042B013C01C701B1010E94BF0625
:1004C0007B010150110901F705C01CBE13BCC09887
:1004D00094989DCF20E030E040E054E4C501B401A1
:1004E0000E9426046B017C01A301920160E070E090
:1004F00080E094E40E9426042B013C01A7019601B0
:100500000E9498044B015C012DEC3CEC4CE451E45E
:100510000E94F20587FD0DC02DEC3CEC4CE451EC43
:10052000C501B4010E94930418161CF0C12CD12CF3
:100530007601A7019601C301B2010E9498044B0104
:100540005C0120E030E048EC5EE30E949304181662
:100550006CF020E030E048EC5EEBC501B4010E9495
:10056000F20587FD03C0412C512C320120E030E020
:1005700040E054E4C301B2010E9427049B01AC0196
:100580000E94270420E030E040E85AE30E94F7058B
:1005900020E030E040E85FE30E9426042B013C01AC
:1005A00020E030E040E054E4C701B6010E94270497
:1005B0009B01AC010E94270420E030E040E85AE3B0
:1005C0000E94F70520E030E040E85FE30E94260447
:1005D0009E012F5F3F4F79018E010B5F1F4FA301DB
:1005E00092010E949C008D809E80AF80B88424EF91
:1005F0003DEF44E35FE369817A818B819C810E94B6
:10060000F7056B017C01C501B401905824EF3DEF63
:1006100044E35FE30E94F705A70196010E942704C7
:100620002B013C0124EF3DEF44E35FE3C501B4013E
:100630000E94F705A70196010E9427049E012F5FE3
:100640003F4F7901A30192010E94F70021E134ECB0
:100650004DE75FE36D817E818F8198850E9427043D
:1006600020E030E04FEF53E40E94F70521E134EC45
:100670004DEF5FE30E94980420E030E04FE753E441
:100680000E9426042B013C0121E134EC4DE75FE39D
:1006900069817A818B819C810E94270420E030E06F
:1006A0004FEF53E40E94F70521E134EC4DEF5FE397
:1006B0000E94980420E030E04FE753E40E942604B3
:1006C0006B017C0120E030E04FE753E4C301B2014D
:1006D0000E94F20520E030E04FE753E418169CF149
:1006E000C701B6010E94F20518160CF485C020E07F
:1006F00030E040EA51E4C301B2010E94930487FF55
:100700000AC020E030E040EA51ECC301B2010E948F
:10071000F2051816B4F120E030E040EA51E4C701D8
:10072000B6010E94930487FF1CC020E030E040EA3D
:1007300051ECC701B6010E94F205181694F4C12CC1
:10074000D12C76010EC0C701B6010E94F205412CE2
:10075000512C2FE7622E23E4722E181644F67301F3
:10076000620120E030E0A901C301B2010E94F2055C
:1007700018160CF5C301B2010E940A056CBFC09A9D
:1007800021C020E030E040EA51E4C701B6010E94F8
:10079000930487FF53C020E030E040EA51ECC701EA
:1007A000B6010E94F20518160CF04CC0C12CD12CD9
:1007B000760126013701C301B2010E940A05619545
:1007C0006CBFC09820E030E0A901C701B6010E94CB
:1007D000F20518163CF4C701B6010E940A0563BD74
:1007E000949A15CEC701B6010E940A05619563BDB2
:1007F00082B3807E82BB0BCE20E030E040EA51E441
:10080000C301B2010E94930487FD07C0C12CD12C03
:100810003FE7E32E33E4F32EA4CF20E030E040EABC
:1008200051ECC301B2010E94F205C12CD12C9FE70B
:10083000E92E93E4F92E18160CF06DCF412C512CB3
:100840003201B9CF412C512C32018BCF5058BB27EC
:10085000AA270E943E040C94B8050E94AA0538F00D
:100860000E94B10520F039F49F3F19F426F40C944E
:10087000A7050EF4E095E7FB0C94A105E92F0E9473
:10088000C90558F3BA17620773078407950720F064
:1008900079F4A6F50C94EB050EF4E0950B2EBA2F27
:1008A000A02D0B01B90190010C01CA01A001112476
:1008B000FF27591B99F0593F50F4503E68F11A1622
:1008C000F040A22F232F342F4427585FF3CF4695B3
:1008D00037952795A795F0405395C9F77EF41F16D5
:1008E000BA0B620B730B840BBAF09150A1F0FF0F9F
:1008F000BB1F661F771F881FC2F70EC0BA0F621F8B
:10090000731F841F48F4879577956795B795F7957A
:100910009E3F08F0B0CF9395880F08F09927EE0F0F
:100920009795879508950E947D0508F481E00895C4
:100930000E94AC040C94B8050E94B10558F00E94C6
:10094000AA0540F029F45F3F29F00C94A10551114C
:100950000C94EC050C94A7050E94C90568F3992333
:10096000B1F3552391F3951B550BBB27AA276217AB
:100970007307840738F09F5F5F4F220F331F441FB8
:10098000AA1FA9F335D00E2E3AF0E0E832D09150EC
:100990005040E695001CCAF72BD0FE2F29D0660FD9
:1009A000771F881FBB1F261737074807AB07B0E81C
:1009B00009F0BB0B802DBF01FF2793585F4F3AF022
:1009C0009E3F510578F00C94A1050C94EC055F3F17
:1009D000E4F3983ED4F3869577956795B795F795A8
:1009E0009F5FC9F7880F911D9695879597F9089590
:1009F000E1E0660F771F881FBB1F6217730784072C
:100A0000BA0720F0621B730B840BBA0BEE1F88F73A
:100A1000E09508950E9411056894B1110C94EC05BD
:100A200008950E94D10588F09F5798F0B92F992713
:100A3000B751B0F0E1F0660F771F881F991F1AF0C9
:100A4000BA95C9F714C0B13091F00E94EB05B1E03E
:100A500008950C94EB05672F782F8827B85F39F03D
:100A6000B93FCCF3869577956795B395D9F73EF462
:100A700090958095709561957F4F8F4F9F4F08950A
:100A8000E89409C097FB3EF4909580957095619528
:100A90007F4F8F4F9F4F9923A9F0F92F96E9BB27DE
:100AA0009395F695879577956795B795F111F8CF5A
:100AB000FAF4BB0F11F460FF1BC06F5F7F4F8F4FC5
:100AC0009F4F16C0882311F096E911C0772321F0BB
:100AD0009EE8872F762F05C0662371F096E8862F53
:100AE00070E060E02AF09A95660F771F881FDAF7AA
:100AF000880F9695879597F90895990F0008550FD7
:100B0000AA0BE0E8FEEF16161706E807F907C0F093
:100B100012161306E407F50798F0621B730B840B9B
:100B2000950B39F40A2661F0232B242B252B21F475
:100B300008950A2609F4A140A6958FEF811D811D15
:100B4000089597F99F6780E870E060E008959FEF4F
:100B500080EC089500240A94161617061806090654
:100B6000089500240A941216130614060506089523
:100B7000092E0394000C11F4882352F0BB0F40F4AB
:100B8000BF2B11F460FF04C06F5F7F4F8F4F9F4FEB
:100B9000089557FD9058440F551F59F05F3F71F06D
:100BA0004795880F97FB991F61F09F3F79F08795D4
:100BB0000895121613061406551FF2CF4695F1DF5D
:100BC00008C0161617061806991FF1CF86957105ED
:100BD000610508940895E894BB2766277727CB0121
:100BE00097F908950E947D0508F48FEF08950E94FB
:100BF0000A060C94B8050E94AA0538F00E94B105B7
:100C000020F0952311F00C94A1050C94A705112454
:100C10000C94EC050E94C90570F3959FC1F3950FE4
:100C200050E0551F629FF001729FBB27F00DB11D70
:100C3000639FAA27F00DB11DAA1F649F6627B00D00
:100C4000A11D661F829F2227B00DA11D621F739FE9
:100C5000B00DA11D621F839FA00D611D221F749FF7
:100C60003327A00D611D231F849F600D211D822F3E
:100C7000762F6A2F11249F5750409AF0F1F0882365
:100C80004AF0EE0FFF1FBB1F661F771F881F915092
:100C90005040A9F79E3F510580F00C94A1050C949B
:100CA000EC055F3FE4F3983ED4F38695779567951E
:100CB000B795F795E7959F5FC1F7FE2B880F911DBC
:100CC0009695879597F9089519F416F40C94A7054D
:100CD0000C94AA060E94D105B8F39923C9F3B6F380
:100CE0009F57550B87FF0E94B8060024A0E640EAF4
:100CF000900180585695979528F4805C660F771F71
:100D0000881F20F026173707480730F4621B730B43
:100D1000840B202931294A2BA69517940794202566
:100D200031254A2758F7660F771F881F20F02617AE
:100D30003707480730F4620B730B840B200D311D0D
:100D4000411DA09581F7B901842F9158880F969580
:100D5000879508959F3F31F0915020F487957795BE
:100D60006795B795880F911D9695879597F9089582
:100D700091505040660F771F881FD2F7089597FB58
:100D8000072E16F4009407D077FD09D00E94D306F1
:100D900007FC05D03EF4909581959F4F089570957E
:100DA00061957F4F0895AA1BBB1B51E107C0AA1F85
:100DB000BB1FA617B70710F0A61BB70B881F991FFC
:100DC0005A95A9F780959095BC01CD010895F894A6
:020DD000FFCF53
:00000001FF
