:100000000C942A000C9434000C9434000C943400AA
:100010000C9434000C9434000C9434000C94340090
:100020000C9434000C9434000C9434000C94340080
:100030000C9434000C9434000C9434000C94340070
:100040000C9434000C9434000C9434000C94340060
:100050000C94340011241FBECFE5D4E0DEBFCDBF29
:100060000E9436000C946A000C94000085B58966E5
:1000700085BD81B3846881BB83B7896683BFBB9A22
:1000800080E08CBF83BDEFE9FFE03197F1F700C05E
:1000900000008F5F8F3FA9F7FFEF29E638E1F150AD
:1000A00020403040E1F700C000008CBF83BDEFE985
:1000B000FFE03197F1F700C0000081508130A9F7CF
:1000C000FFEF29E638E1F15020403040E1F700C071
:0800D0000000D6CFF894FFCF29
:00000001FF
