:100000000C942A000C9434000C9434000C943400AA
:100010000C9434000C9434000C9434000C94340090
:100020000C9434000C9434000C9434000C94340080
:100030000C9434000C9434000C9434000C94340070
:100040000C9434000C9434000C9434000C94340060
:100050000C94340011241FBECFE5D4E0DEBFCDBF29
:100060000E9480000C94A0040C9400005F9BFECFC3
:100070008CB190E008955D9BFECF8CB908954F92AE
:100080005F926F927F92AF92BF92CF92DF92EF9288
:10009000FF920F931F93CF93DF93CDB7DEB7290164
:1000A0003A019B01AC012419350946095709898990
:1000B0009A89AB89BC89BC01CD016A197B098C097D
:1000C0009D090E940D04A8019701241935094609CC
:1000D00057090E943104CA01B9016A0D7B1D8C1DAC
:1000E0009D1DDF91CF911F910F91FF90EF90DF90B9
:1000F000CF90BF90AF907F906F905F904F9008959A
:10010000CF93DF93CDB7DEB7C850D8400FB6F89481
:10011000DEBF0FBECDBF83B7896683BF87B38B6059
:1001200087BB85B5896685BD81B3846881BBC0986E
:10013000929882E08BB910BC8FEF89B980E18AB9BF
:1001400086E880BD00E010E0B801012E000C880BAD
:10015000990B0E94EB022DEC3CEC4CEC52E40E941B
:10016000A0034B015C010E94B3026B01660F771F75
:10017000EE24E394F12CEC0EFD1EE60EF71E0F5F4D
:100180001F4FB6010D2C000C880B990B0E94EB023F
:100190002B013C012DEC3CEC4CEC52E4C501B401CC
:1001A0000E9442029B01AC01C301B2010E94AE0257
:1001B00087FF08C0D7010D931D937D01BFEFCB1AB8
:1001C000DB0ADFCF0A30110509F0BECF0E943600EE
:1001D000419709F05EC00E9436008C010E943600F3
:1001E000A82E0E943600819709F053C00E94360065
:1001F0006C010E943600B82E0E943600C19709F0AB
:1002000048C00E9436007C010E943600382E212C06
:10021000E228F328CA5FD74FA882C650D840CB5FE8
:10022000D74F1882C550D840CB5FD74FE881F981AE
:10023000C550D8400E2B1F2B1250C85FD74FB88225
:10024000C850D840C95FD74F1882C750D840C95F3F
:10025000D74F88819981C750D840C82AD92AA0E0B1
:10026000B2E0AC19BD096D01CD01B8010E941D04B9
:10027000072E000C880B990B0E94EB024B015C01CE
:100280002DEC3CEC4CE451E40E949B0387FF08C03A
:1002900013C01CBE13BC82B3887F82BBC09896CFAC
:1002A0002DEC3CEC4CE451ECC501B4010E94AE02D3
:1002B000181614F000E010E0C601B8010E941D04F9
:1002C000072E000C880B990B0E94EB024B015C017E
:1002D00020E030E040E25DE30E94AE02181664F0D8
:1002E00020E030E040E25DEBC501B4010E949B03D9
:1002F00087FD02C0C12CD12CB601DD0C880B990BF7
:100300000E94EB0224EF3DEF44E35FE30E94A00371
:100310002B013C01EE0CFF1CE1E0F0E0EC0FFD1FB7
:10032000EE0DFF1D0190F081E02D81E09FEFBF01F8
:100330000E941D046B01770FEE08FF088FEF90E01D
:10034000BF010E941D044B01770FAA08BB088C183F
:100350009D08AE08BF08B801012E000C880B990B50
:100360000E94EB0224EF3DEF44E35FE30E94A00311
:10037000A30192010E9442020E94B302CB01770FB7
:10038000AA0BBB0B9C01AD012D523D4F4F4F5F4F50
:10039000C501B4010E940D0426EA35E040E050E0BA
:1003A0000E943104DA01C9018C0D9D1DAE1DBF1DD7
:1003B000CF5FD74F88839983AA83BB83C150D8402E
:1003C00066277727601B710B072E000C880B990B93
:1003D0000E94EB0224EF3DEF44E35FE30E94A003A1
:1003E000A30192010E9442020E94B302CB01770F47
:1003F000AA0BBB0B9C01AD012D523D4F4F4F5F4FE0
:10040000C501B4010E940D0426EA35E040E050E049
:100410000E943104BA01A9014C0D5D1D6E1D7F1DA6
:10042000CF5FD74F88819981C150D8404396879735
:1004300038F0CF5FD74FC880D980C150D84002C0B4
:10044000C12CD12CCA01CB96879720F09A01285D48
:100450003F4F02C020E030E01C141D041CF4CCBE51
:10046000C09A03C0C194CCBEC098121613061CF4E7
:1004700023BD929AABCE219523BD82B3887F82BBE8
:10048000A5CE5058BB27AA270E9459020C9461039D
:100490000E94530338F00E945A0320F039F49F3F22
:1004A00019F426F40C9450030EF4E095E7FB0C9439
:1004B0004A03E92F0E94720358F3BA1762077307C1
:1004C0008407950720F079F4A6F50C9494030EF4B4
:1004D000E0950B2EBA2FA02D0B01B90190010C0154
:1004E000CA01A0011124FF27591B99F0593F50F46C
:1004F000503E68F11A16F040A22F232F342F4427C4
:10050000585FF3CF469537952795A795F0405395BB
:10051000C9F77EF41F16BA0B620B730B840BBAF08B
:100520009150A1F0FF0FBB1F661F771F881FC2F7F6
:100530000EC0BA0F621F731F841F48F4879577950A
:100540006795B795F7959E3F08F0B0CF9395880FC4
:1005500008F09927EE0F9795879508950E94260336
:1005600008F481E008950E94BA026894B1110C94D5
:10057000950308950E947A0388F09F5798F0B92F49
:100580009927B751B0F0E1F0660F771F881F991FC8
:100590001AF0BA95C9F714C0B13091F00E949403D3
:1005A000B1E008950C949403672F782F8827B85FE3
:1005B00039F0B93FCCF3869577956795B395D9F720
:1005C0003EF490958095709561957F4F8F4F9F4F2A
:1005D0000895E89409C097FB3EF490958095709536
:1005E00061957F4F8F4F9F4F9923A9F0F92F96E97F
:1005F000BB279395F695879577956795B795F111F4
:10060000F8CFFAF4BB0F11F460FF1BC06F5F7F4F90
:100610008F4F9F4F16C0882311F096E911C07723A2
:1006200021F09EE8872F762F05C0662371F096E8AB
:10063000862F70E060E02AF09A95660F771F881F7A
:10064000DAF7880F9695879597F90895990F00081E
:10065000550FAA0BE0E8FEEF16161706E807F90794
:10066000C0F012161306E407F50798F0621B730B2F
:10067000840B950B39F40A2661F0232B242B252BB0
:1006800021F408950A2609F4A140A6958FEF811D53
:10069000811D089597F99F6780E870E060E00895F4
:1006A0009FEF80EC089500240A941616170618068A
:1006B0000906089500240A94121613061406050666
:1006C0000895092E0394000C11F4882352F0BB0FF7
:1006D00040F4BF2B11F460FF04C06F5F7F4F8F4F5A
:1006E0009F4F089557FD9058440F551F59F05F3F95
:1006F00071F04795880F97FB991F61F09F3F79F044
:1007000087950895121613061406551FF2CF4695C5
:10071000F1DF08C0161617061806991FF1CF869547
:100720007105610508940895E894BB27662777272B
:10073000CB0197F908950E94260308F48FEF0895DE
:100740000E94B3030C9461030E94530338F00E948B
:100750005A0320F0952311F00C944A030C94500393
:1007600011240C9495030E94720370F3959FC1F3BA
:10077000950F50E0551F629FF001729FBB27F00D4F
:10078000B11D639FAA27F00DB11DAA1F649F6627A4
:10079000B00DA11D661F829F2227B00DA11D621FF3
:1007A000739FB00DA11D621F839FA00D611D221FAD
:1007B000749F3327A00D611D231F849F600D211D91
:1007C000822F762F6A2F11249F5750409AF0F1F014
:1007D00088234AF0EE0FFF1FBB1F661F771F881F7D
:1007E00091505040A9F79E3F510580F00C944A0368
:1007F0000C9495035F3FE4F3983ED4F38695779588
:100800006795B795F795E7959F5FC1F7FE2B880F22
:10081000911D9695879597F90895DB018F939F9386
:100820000E945004BF91AF91A29F800D911DA39F84
:10083000900DB29F900D1124089597FB072E16F48A
:10084000009407D077FD09D00E945B0407FC05D017
:100850003EF4909581959F4F0895709561957F4FD7
:100860000895052E97FB1EF400940E94480457FD3E
:1008700007D00E946F0407FC03D04EF40C94480488
:1008800050954095309521953F4F4F4F5F4F0895BC
:1008900090958095709561957F4F8F4F9F4F0895EC
:1008A0000E949104A59F900DB49F900DA49F800D70
:1008B000911D11240895AA1BBB1B51E107C0AA1F5B
:1008C000BB1FA617B70710F0A61BB70B881F991FF1
:1008D0005A95A9F780959095BC01CD010895A1E2A4
:1008E0001A2EAA1BBB1BFD010DC0AA1FBB1FEE1FAA
:1008F000FF1FA217B307E407F50720F0A21BB30BF5
:10090000E40BF50B661F771F881F991F1A9469F770
:1009100060957095809590959B01AC01BD01CF01CC
:100920000895A29FB001B39FC001A39F700D811DC8
:100930001124911DB29F700D811D1124911D0895E8
:04094000F894FFCF59
:00000001FF
