:100000000C942A000C943C000C943C000C943C0092
:100010000C943C000C943C000C943C000C943C0070
:100020000C943C000C943C000C943C000C943C0060
:100030000C943C000C943C000C943C000C943C0050
:100040000C943C000C943C000C943C000C943C0040
:100050000C943C0011241FBECFE5D4E0DEBFCDBF21
:1000600020E0A0E6B0E001C01D92A636B207E1F79D
:100070000E9488000C9423040C9400005F9BFECF28
:100080008CB190E008955D9BFECF8CB908954F929E
:100090005F926F927F92AF92BF92CF92DF92EF9278
:1000A000FF920F931F93CF93DF93CDB7DEB7290154
:1000B0003A019B01AC012419350946095709898980
:1000C0009A89AB89BC89BC01CD016A197B098C096D
:1000D0009D090E94B803A801970124193509460912
:1000E00057090E94C803CA01B9016A0D7B1D8C1D06
:1000F0009D1DDF91CF911F910F91FF90EF90DF90A9
:10010000CF90BF90AF907F906F905F904F90089589
:10011000CF93DF93CDB7DEB7C450D8400FB6F89475
:10012000DEBF0FBECDBF83B7896683BF87B38B6049
:1001300087BB85B5896685BD81B3846881BBC0985E
:10014000929882E08BB910BC8FEF89B980E18AB9AF
:1001500086E880BDE12CF12CB7010F2C000C880B38
:10016000990B0E949B022DEC3CEC4CEC52E40E945B
:100170004B034B015C010E9463026B01660F771F0A
:1001800001E010E00C0F1D1F060F171FB6010D2C0C
:10019000000C880B990B0E949B022B013C012DEC5B
:1001A0003CEC4CEC52E4C501B4010E94F2019B010D
:1001B000AC01C301B2010E945E0287FF08C0F801D2
:1001C000E192F1928F01FFEFCF1ADF0ADFCF8FEFBD
:1001D000E81AF80A9AE0E916F10409F0BDCF0E9486
:1001E0003E00419709F04CC00E943E008C010E94E5
:1001F0003E00382E212C022913291093650000930C
:1002000064000E943E008197D9F50E943E007C0167
:100210000E943E00CE5FD74F8883C250D840CF5F48
:10022000D74F1882C150D840CF5FD74FE881F981AE
:10023000C150D840EE2AFF2AF0926300E09262009B
:100240000E943E00C19719F50E943E006C010E9479
:100250003E00CC5FD74F8883C450D840CD5FD74F86
:100260001882C350D840CD5FD74F88819981C35041
:10027000D840C82AD92AD0926100C092600007C035
:100280001CBE13BC82B3887F82BBC098A8CF12501B
:1002900060E072E06E197F09072E000C880B990B45
:1002A0000E949B0224EF3DEF44E35FE30E944B0377
:1002B0002B013C01E0916000F0916100EE0FFF1F07
:1002C00081E090E08C0F9D1FE80FF91F80809180E6
:1002D000092C000CAA08BB08B801012E000C880BE1
:1002E000990B0E949B0224EF3DEF44E35FE30E94E1
:1002F0004B03A30192010E94F2010E946302CB0111
:10030000770FAA0BBB0B9C01AD012D523D4F4F4FF8
:100310005F4FAEEFB1E00E94E70326EA35E040E030
:1003200050E00E94C8032F5F310941095109C501FE
:10033000B4010E94B80329E030E040E050E00E94A0
:10034000C80369017A0166277727601B710B072EA6
:10035000000C880B990B0E949B0224EF3DEF44E3B5
:100360005FE30E944B03A30192010E94F2010E94ED
:100370006302CB01770FAA0BBB0B9C01AD012D5281
:100380003D4F4F4F5F4FAEEFB1E00E94E70326EACB
:1003900035E040E050E00E94C8032F5F3109410979
:1003A0005109C501B4010E94B80329E030E040E0E2
:1003B00050E00E94C803C9011C141D041CF4CCBEEB
:1003C000C09A03C0C194CCBEC098181619061CF47C
:1003D00023BD929A04CF219523BD82B3887F82BB2F
:1003E000FECE5058BB27AA270E9409020C94110385
:1003F0000E94030338F00E940A0320F039F49F3F63
:1004000019F426F40C9400030EF4E095E7FB0C9429
:10041000FA02E92F0E94220358F3BA176207730702
:100420008407950720F079F4A6F50C9444030EF4A4
:10043000E0950B2EBA2FA02D0B01B90190010C01F4
:10044000CA01A0011124FF27591B99F0593F50F40C
:10045000503E68F11A16F040A22F232F342F442764
:10046000585FF3CF469537952795A795F04053955C
:10047000C9F77EF41F16BA0B620B730B840BBAF02C
:100480009150A1F0FF0FBB1F661F771F881FC2F797
:100490000EC0BA0F621F731F841F48F487957795AB
:1004A0006795B795F7959E3F08F0B0CF9395880F65
:1004B00008F09927EE0F9795879508950E94D60228
:1004C00008F481E008950E946A026894B1110C94C6
:1004D000450308950E942A0388F09F5798F0B92F8A
:1004E0009927B751B0F0E1F0660F771F881F991F69
:1004F0001AF0BA95C9F714C0B13091F00E944403C4
:10050000B1E008950C944403672F782F8827B85FD3
:1005100039F0B93FCCF3869577956795B395D9F7C0
:100520003EF490958095709561957F4F8F4F9F4FCA
:100530000895E89409C097FB3EF4909580957095D6
:1005400061957F4F8F4F9F4F9923A9F0F92F96E91F
:10055000BB279395F695879577956795B795F11194
:10056000F8CFFAF4BB0F11F460FF1BC06F5F7F4F31
:100570008F4F9F4F16C0882311F096E911C0772343
:1005800021F09EE8872F762F05C0662371F096E84C
:10059000862F70E060E02AF09A95660F771F881F1B
:1005A000DAF7880F9695879597F90895990F0008BF
:1005B000550FAA0BE0E8FEEF16161706E807F90735
:1005C000C0F012161306E407F50798F0621B730BD0
:1005D000840B950B39F40A2661F0232B242B252B51
:1005E00021F408950A2609F4A140A6958FEF811DF4
:1005F000811D089597F99F6780E870E060E0089595
:100600009FEF80EC089500240A941616170618062A
:100610000906089500240A94121613061406050606
:100620000895092E0394000C11F4882352F0BB0F97
:1006300040F4BF2B11F460FF04C06F5F7F4F8F4FFA
:100640009F4F089557FD9058440F551F59F05F3F35
:1006500071F04795880F97FB991F61F09F3F79F0E4
:1006600087950895121613061406551FF2CF469566
:10067000F1DF08C0161617061806991FF1CF8695E8
:100680007105610508940895E894BB2766277727CC
:10069000CB0197F908950E945E030C9411030E9408
:1006A000030338F00E940A0320F0952311F00C9404
:1006B000FA020C94000311240C9445030E942203B7
:1006C00070F3959FC1F3950F50E0551F629FF001A5
:1006D000729FBB27F00DB11D639FAA27F00DB11DBE
:1006E000AA1F649F6627B00DA11D661F829F222747
:1006F000B00DA11D621F739FB00DA11D621F839FCE
:10070000A00D611D221F749F3327A00D611D231FA3
:10071000849F600D211D822F762F6A2F11249F57F1
:1007200050409AF0F1F088234AF0EE0FFF1FBB1FF4
:10073000661F771F881F91505040A9F79E3F5105B3
:1007400080F00C94FA020C9445035F3FE4F3983E6A
:10075000D4F3869577956795B795F795E7959F5F5D
:10076000C1F7FE2B880F911D9695879597F90895EF
:10077000DB018F939F930E94E703BF91AF91A29FEC
:10078000800D911DA39F900DB29F900D112408958F
:10079000052E97FB1EF400940E94DF0357FD07D03F
:1007A0000E94F20307FC03D04EF40C94DF03509533
:1007B0004095309521953F4F4F4F5F4F089590954D
:1007C0008095709561957F4F8F4F9F4F08950E9440
:1007D0001404A59F900DB49F900DA49F800D911DB2
:1007E00011240895A1E21A2EAA1BBB1BFD010DC006
:1007F000AA1FBB1FEE1FFF1FA217B307E407F507D1
:1008000020F0A21BB30BE40BF50B661F771F881FAC
:10081000991F1A9469F760957095809590959B0142
:10082000AC01BD01CF010895A29FB001B39FC001EB
:10083000A39F700D811D1124911DB29F700D811D0C
:0A0840001124911D0895F894FFCFD4
:00000001FF
