:100000000C942A000C9434000C9434000C943400AA
:100010000C9434000C9434000C9434000C94340090
:100020000C9434000C9434000C9434000C94340080
:100030000C9434000C9434000C9434000C94340070
:100040000C9434000C9434000C9434000C94340060
:100050000C94340011241FBECFE5D4E0DEBFCDBF29
:100060000E9480000C945F030C9400005F9BFECF05
:100070008CB190E008955D9BFECF8CB908954F92AE
:100080005F926F927F92AF92BF92CF92DF92EF9288
:10009000FF920F931F93CF93DF93CDB7DEB7290164
:1000A0003A019B01AC012419350946095709898990
:1000B0009A89AB89BC89BC01CD016A197B098C097D
:1000C0009D090E94F402A8019701241935094609E7
:1000D00057090E940403CA01B9016A0D7B1D8C1DDA
:1000E0009D1DDF91CF911F910F91FF90EF90DF90B9
:1000F000CF90BF90AF907F906F905F904F9008959A
:10010000CF93DF9300D000D0CDB7DEB783B7896639
:1001100083BF87B38B6087BB85B5896685BD81B397
:10012000846881BBC098929882E08BB910BC8FEF35
:1001300089B980E18AB986E880BD00E012E086EAEC
:10014000882E85E0982EA12CB12C0E943600419774
:10015000E1F70E9436009C838B830E943600D82EE4
:100160000E9436007C010E943600DA8219822B81BF
:100170003C8149815A81242B352B32503C832B837F
:10018000382E212CE228F328B8016E197F09072E9A
:10019000000C880B990B0E94FB0124EF3DEF44E318
:1001A0005FE30E9487022B013C012B813C81B90156
:1001B000330F880B990B0E94FB0124EF3DEF44E3C2
:1001C0005FE30E948702A30192010E9457010E94EF
:1001D000C301CB01770FAA0BBB0B9C01AD012D52C4
:1001E0003D4F4F4F5F4FAEEFB1E00E942303A5019B
:1001F00094010E94040369017A018FEFC81AD108A3
:10020000E108F1082B813C81319521953109B90133
:10021000330F880B990B0E94FB0124EF3DEF44E361
:100220005FE30E948702A30192010E9457010E948E
:10023000C301CB01770FAA0BBB0B9C01AD012D5263
:100240003D4F4F4F5F4FAEEFB1E00E942303A5013A
:1002500094010E940403BA01A9014F5F5109610989
:100260007109C6014396879710F4C12CD12CCA019D
:10027000CB96879720F09A01285D3F4F02C020E07F
:1002800030E01C141D041CF4CCBEC09A03C0C19401
:10029000CCBEC098121613061CF423BD929A55CFFB
:1002A000219523BD82B3887F82BB4FCF5058BB2797
:1002B000AA270E946E010C944D020E943F0238F062
:1002C0000E94460220F039F49F3F19F426F40C9462
:1002D0003C020EF4E095E7FB0C943602E92F0E94F5
:1002E0005E0258F3BA17620773078407950720F078
:1002F00079F4A6F50C9480020EF4E0950B2EBA2F3B
:10030000A02D0B01B90190010C01CA01A00111241B
:10031000FF27591B99F0593F50F4503E68F11A16C7
:10032000F040A22F232F342F4427585FF3CF469558
:1003300037952795A795F0405395C9F77EF41F167A
:10034000BA0B620B730B840BBAF09150A1F0FF0F44
:10035000BB1F661F771F881FC2F70EC0BA0F621F30
:10036000731F841F48F4879577956795B795F79520
:100370009E3F08F0B0CF9395880F08F09927EE0FB5
:100380009795879508950E94CA016894B1110C94BD
:10039000810208950E94660288F09F5798F0B92F55
:1003A0009927B751B0F0E1F0660F771F881F991FAA
:1003B0001AF0BA95C9F714C0B13091F00E948002CA
:1003C000B1E008950C948002672F782F8827B85FDA
:1003D00039F0B93FCCF3869577956795B395D9F702
:1003E0003EF490958095709561957F4F8F4F9F4F0C
:1003F0000895E89409C097FB3EF490958095709518
:1004000061957F4F8F4F9F4F9923A9F0F92F96E960
:10041000BB279395F695879577956795B795F111D5
:10042000F8CFFAF4BB0F11F460FF1BC06F5F7F4F72
:100430008F4F9F4F16C0882311F096E911C0772384
:1004400021F09EE8872F762F05C0662371F096E88D
:10045000862F70E060E02AF09A95660F771F881F5C
:10046000DAF7880F9695879597F9089597F99F671A
:1004700080E870E060E008959FEF80EC089500242C
:100480000A941616170618060906089500240A94F9
:1004900012161306140605060895092E0394000C7F
:1004A00011F4882352F0BB0F40F4BF2B11F460FF0E
:1004B00004C06F5F7F4F8F4F9F4F089557FD905837
:1004C000440F551F59F05F3F71F04795880F97FB18
:1004D000991F61F09F3F79F08795089512161306D2
:1004E0001406551FF2CF4695F1DF08C01616170601
:1004F0001806991FF1CF8695710561050894089536
:10050000E894BB2766277727CB0197F908950E94C7
:100510009A020C944D020E943F0238F00E9446025B
:1005200020F0952311F00C9436020C943C02112417
:100530000C9481020E945E0270F3959FC1F3950FA7
:1005400050E0551F629FF001729FBB27F00DB11D57
:10055000639FAA27F00DB11DAA1F649F6627B00DE7
:10056000A11D661F829F2227B00DA11D621F739FD0
:10057000B00DA11D621F839FA00D611D221F749FDE
:100580003327A00D611D231F849F600D211D822F25
:10059000762F6A2F11249F5750409AF0F1F088234C
:1005A0004AF0EE0FFF1FBB1F661F771F881F915079
:1005B0005040A9F79E3F510580F00C9436020C94F0
:1005C00081025F3FE4F3983ED4F386957795679573
:1005D000B795F795E7959F5FC1F7FE2B880F911DA3
:1005E0009695879597F90895DB018F939F930E94C5
:1005F0002303BF91AF91A29F800D911DA39F900DEA
:10060000B29F900D11240895052E97FB1EF40094BF
:100610000E941B0357FD07D00E942E0307FC03D046
:100620004EF40C941B0350954095309521953F4F07
:100630004F4F5F4F089590958095709561957F4FCE
:100640008F4F9F4F08950E945003A59F900DB49F18
:10065000900DA49F800D911D11240895A1E21A2EE2
:10066000AA1BBB1BFD010DC0AA1FBB1FEE1FFF1F56
:10067000A217B307E407F50720F0A21BB30BE40BA6
:10068000F50B661F771F881F991F1A9469F76095ED
:100690007095809590959B01AC01BD01CF010895A7
:1006A000A29FB001B39FC001A39F700D811D1124B3
:1006B000911DB29F700D811D1124911D0895F89414
:0206C000FFCF6A
:00000001FF
