:100000000C942A000C9434000C9434000C943400AA
:100010000C9434000C9434000C9434000C94340090
:100020000C9434000C9434000C9434000C94340080
:100030000C9434000C9434000C9434000C94340070
:100040000C9434000C9434000C9434000C94340060
:100050000C94340011241FBECFE5D8E0DEBFCDBF25
:100060000E9480000C9495010C9400005F9BFECFD1
:100070008CB190E008955D9BFECF8CB908954F92AE
:100080005F926F927F92AF92BF92CF92DF92EF9288
:10009000FF920F931F93CF93DF93CDB7DEB7290164
:1000A0003A019B01AC012419350946095709898990
:1000B0009A89AB89BC89BC01CD016A197B098C097D
:1000C0009D090E940201A8019701241935094609DA
:1000D00057090E942601CA01B9016A0D7B1D8C1DBA
:1000E0009D1DDF91CF911F910F91FF90EF90DF90B9
:1000F000CF90BF90AF907F906F905F904F9008959A
:1001000083B7896683BF87B38B6087BB85B58966F4
:1001100085BD81B3806981BBD09AC098D89882E0B0
:100120008BB910BC87E689B980E18AB986E880BDC1
:100130002AE0C22ED12C0E9436008136910551F55D
:100140000E943600C0975C0103E010E094E6E92EBF
:10015000F12CC0E0D0E00E943600C0978E9D900147
:100160008F9D300D9E9D300D1124C20FD31FC701EE
:10017000B6010E9412017B010150110961F7CCBF49
:10018000A114B10411F4C09A09C0AA94AB2831F4A7
:10019000C09804C01CBE13BCC098D8980E943600FA
:1001A0008236910551F50E943600C0975C0103E04C
:1001B00010E084E6E82EF12CC0E0D0E00E9436008A
:1001C000C0978E9D90018F9D300D9E9D300D112406
:1001D000C20FD31FC701B6010E9412017B0101505B
:1001E000110961F7C3BDA114B10411F4D89AA3CFCA
:1001F000AA94AB2809F09FCF03C01CBE13BCC098C3
:10020000D89899CFDB018F939F930E944501BF91AE
:10021000AF91A29F800D911DA39F900DB29F900D55
:100220001124089597FB072E16F4009407D077FD4C
:1002300009D00E94500107FC05D03EF490958195AD
:100240009F4F0895709561957F4F0895052E97FBF8
:100250001EF400940E943D0157FD07D00E946401E6
:1002600007FC03D04EF40C943D0150954095309519
:1002700021953F4F4F4F5F4F089590958095709512
:1002800061957F4F8F4F9F4F08950E948601A59FD4
:10029000900DB49F900DA49F800D911D1124089581
:1002A000AA1BBB1B51E107C0AA1FBB1FA617B7079C
:1002B00010F0A61BB70B881F991F5A95A9F78095B8
:1002C0009095BC01CD010895A1E21A2EAA1BBB1B7B
:1002D000FD010DC0AA1FBB1FEE1FFF1FA217B30712
:1002E000E407F50720F0A21BB30BE40BF50B661F28
:1002F000771F881F991F1A9469F7609570958095EC
:1003000090959B01AC01BD01CF010895A29FB00162
:10031000B39FC001A39F700D811D1124911DB29F39
:0E032000700D811D1124911D0895F894FFCFDA
:00000001FF
