:100000000C942A000C9434000C9434000C943400AA
:100010000C9434000C9434000C9434000C94340090
:100020000C9434000C9434000C9434000C94340080
:100030000C9434000C9434000C9434000C94340070
:100040000C9434000C9434000C9434000C94340060
:100050000C94340011241FBECFE5D4E0DEBFCDBF29
:100060000E947F000C9410010C9400005F9BFECF57
:100070008CB108955D9BFECF8CB908954F925F922D
:100080006F927F92AF92BF92CF92DF92EF92FF92E8
:100090000F931F93CF93DF93CDB7DEB729013A01BA
:1000A0009B01AC01241935094609570989899A89A8
:1000B000AB89BC89BC01CD016A197B098C099D09FA
:1000C0000E94A500A801970124193509460957097E
:1000D0000E94B500CA01B9016A0D7B1D8C1D9D1DD2
:1000E000DF91CF911F910F91FF90EF90DF90CF9014
:1000F000BF90AF907F906F905F904F90089582E097
:100100008BB910BC8FEF89B988E08AB986E880BDC9
:100110003E9A329A379AC1E0369A3699FECF84B128
:100120000E943A0085B10E943A0087B18C2787B9B6
:10013000369A3699FECF84B10E943A0085B10E946A
:100140003A0087B18C2787B9E7CFDB018F939F9364
:100150000E94D400BF91AF91A29F800D911DA39FDB
:10016000900DB29F900D11240895052E97FB1EF45B
:1001700000940E94CC0057FD07D00E94DF0007FCCE
:1001800003D04EF40C94CC005095409530952195B9
:100190003F4F4F4F5F4F08959095809570956195B3
:1001A0007F4F8F4F9F4F08950E940101A59F900D93
:1001B000B49F900DA49F800D911D11240895A1E27C
:1001C0001A2EAA1BBB1BFD010DC0AA1FBB1FEE1FD1
:1001D000FF1FA217B307E407F50720F0A21BB30B1C
:1001E000E40BF50B661F771F881F991F1A9469F798
:1001F00060957095809590959B01AC01BD01CF01F4
:100200000895A29FB001B39FC001A39F700D811DEF
:100210001124911DB29F700D811D1124911D08950F
:04022000F894FFCF80
:00000001FF
