:100000000C942A000C9434000C9434000C943400AA
:100010000C9434000C9434000C9434000C94340090
:100020000C9434000C9434000C9434000C94340080
:100030000C9434000C9434000C9434000C94340070
:100040000C9434000C9434000C9434000C94340060
:100050000C94340011241FBECFE5D4E0DEBFCDBF29
:100060000E947F000C94EA030C9400005F9BFECF7B
:100070008CB108955D9BFECF8CB908954F925F922D
:100080006F927F92AF92BF92CF92DF92EF92FF92E8
:100090000F931F93CF93DF93CDB7DEB729013A01BA
:1000A0009B01AC01241935094609570989899A89A8
:1000B000AB89BC89BC01CD016A197B098C099D09FA
:1000C0000E945703A80197012419350946095709C9
:1000D0000E947B03CA01B9016A0D7B1D8C1D9D1D09
:1000E000DF91CF911F910F91FF90EF90DF90CF9014
:1000F000BF90AF907F906F905F904F90089583B7BF
:10010000896683BF87B38B6087BB85B5896685BDEC
:1001100081EA8FBD89E08EBD81B3846B81BBC098BD
:10012000929882E08BB910BC8FEF89B980E18AB9CF
:1001300086E880BD86EA882E85E0982EA12CB12C19
:100140000E943600813109F06AC00E943600C82F33
:100150000E943600082F0E943600813209F05FC0ED
:100160000E943600182F0E943600D0E0D02BD250CB
:10017000212F30E0382B00E012E0021B130BB801F6
:10018000012E000C880B990B0E94350224EF3DEFE5
:1001900044E35FE30E94EA022B013C01BE010D2E05
:1001A000000C880B990B0E94350224EF3DEF44E3CD
:1001B0005FE30E94EA02A30192010E948C010E9467
:1001C000FD016B017C01662777276C1B7D0B072ED9
:1001D000000C880B990B0E94350224EF3DEF44E39D
:1001E0005FE30E94EA02A30192010E948C010E9437
:1001F000FD013B01C801BE010E946703072E000CF0
:10020000880B990B0E9435021B012C012DEC3CEC54
:100210004CE451E40E94E50287FF06C010C01CBEFA
:1002200013BC1ABC18BC8CCF2DEC3CEC4CE451EC4C
:10023000C201B1010E94F80118160CF0360120E04D
:1002400030E040E25DE3C201B1010E94F8011816FE
:1002500074F020E030E040E25DEBC201B1010E94A9
:10026000E50287FD04C0662477246C187D08C6016A
:10027000DD0CAA0BBB0B9C01AD012D523D4F4F4F26
:100280005F4FAEEFB1E00E949A03A50194010E9476
:100290007B0369017A018FEFC81AD108E108F108E0
:1002A000C301770CAA0BBB0B9C01AD012D523D4F36
:1002B0004F4F5F4FAEEFB1E00E949A03A50194014A
:1002C0000E947B03BA01A9014F5F510961097109BD
:1002D000C6014396879710F4C12CD12CCA014396CE
:1002E000879710F09A0102C020E030E01C141D0432
:1002F0001CF4CCBE18BC05C01CBE81E0C81AD108D5
:10030000C8BC121613061CF423BD1ABC19CF13BCAB
:1003100021952ABD15CF5058BB27AA270E94A301BB
:100320000C94AB020E949D0238F00E94A40220F0BF
:1003300039F49F3F19F426F40C949A020EF4E095D8
:10034000E7FB0C949402E92F0E94BC0258F3BA1701
:10035000620773078407950720F079F4A6F50C94DB
:10036000DE020EF4E0950B2EBA2FA02D0B01B90181
:1003700090010C01CA01A0011124FF27591B99F01B
:10038000593F50F4503E68F11A16F040A22F232F27
:10039000342F4427585FF3CF469537952795A79577
:1003A000F0405395C9F77EF41F16BA0B620B730B1E
:1003B000840BBAF09150A1F0FF0FBB1F661F771F8F
:1003C000881FC2F70EC0BA0F621F731F841F48F444
:1003D000879577956795B795F7959E3F08F0B0CFCD
:1003E0009395880F08F09927EE0F979587950895B4
:1003F0000E94700208F481E008950E94040268944B
:10040000B1110C94DF0208950E94C40288F09F5736
:1004100098F0B92F9927B751B0F0E1F0660F771F28
:10042000881F991F1AF0BA95C9F714C0B13091F01E
:100430000E94DE02B1E008950C94DE02672F782F4F
:100440008827B85F39F0B93FCCF3869577956795E3
:10045000B395D9F73EF490958095709561957F4F4F
:100460008F4F9F4F0895E89409C097FB3EF49095F5
:100470008095709561957F4F8F4F9F4F9923A9F07D
:10048000F92F96E9BB279395F6958795779567950C
:10049000B795F111F8CFFAF4BB0F11F460FF1BC050
:1004A0006F5F7F4F8F4F9F4F16C0882311F096E9E3
:1004B00011C0772321F09EE8872F762F05C0662391
:1004C00071F096E8862F70E060E02AF09A95660F4A
:1004D000771F881FDAF7880F9695879597F9089503
:1004E000990F0008550FAA0BE0E8FEEF1616170645
:1004F000E807F907C0F012161306E407F50798F0AD
:10050000621B730B840B950B39F40A2661F0232BC5
:10051000242B252B21F408950A2609F4A140A69541
:100520008FEF811D811D089597F99F6780E870E026
:1005300060E008959FEF80EC089500240A94161659
:10054000170618060906089500240A9412161306C1
:10055000140605060895092E0394000C11F488234F
:1005600052F0BB0F40F4BF2B11F460FF04C06F5F6B
:100570007F4F8F4F9F4F089557FD9058440F551F41
:1005800059F05F3F71F04795880F97FB991F61F015
:100590009F3F79F087950895121613061406551F8C
:1005A000F2CF4695F1DF08C0161617061806991FF8
:1005B000F1CF86957105610508940895E894BB27ED
:1005C00066277727CB0197F908950E94700208F4F7
:1005D0008FEF08950E94FD020C94AB020E949D02D1
:1005E00038F00E94A40220F0952311F00C9494029C
:1005F0000C949A0211240C94DF020E94BC0270F346
:10060000959FC1F3950F50E0551F629FF001729FB7
:10061000BB27F00DB11D639FAA27F00DB11DAA1FC6
:10062000649F6627B00DA11D661F829F2227B00D13
:10063000A11D621F739FB00DA11D621F839FA00D9E
:10064000611D221F749F3327A00D611D231F849FEE
:10065000600D211D822F762F6A2F11249F57504045
:100660009AF0F1F088234AF0EE0FFF1FBB1F661FC0
:10067000771F881F91505040A9F79E3F510580F089
:100680000C9494020C94DF025F3FE4F3983ED4F3A1
:10069000869577956795B795F795E7959F5FC1F72D
:1006A000FE2B880F911D9695879597F90895DB018C
:1006B0008F939F930E949A03BF91AF91A29F800D49
:1006C000911DA39F900DB29F900D1124089597FB4B
:1006D000072E16F4009407D077FD09D00E94A503D9
:1006E00007FC05D03EF4909581959F4F0895709535
:1006F00061957F4F0895052E97FB1EF400940E948C
:10070000920357FD07D00E94B90307FC03D04EF4B3
:100710000C94920350954095309521953F4F4F4F43
:100720005F4F089590958095709561957F4F8F4F9D
:100730009F4F08950E94DB03A59F900DB49F900DDD
:10074000A49F800D911D11240895AA1BBB1B51E18C
:1007500007C0AA1FBB1FA617B70710F0A61BB70B31
:10076000881F991F5A95A9F780959095BC01CD01D6
:100770000895A1E21A2EAA1BBB1BFD010DC0AA1FE2
:10078000BB1FEE1FFF1FA217B307E407F50720F0FA
:10079000A21BB30BE40BF50B661F771F881F991F75
:1007A0001A9469F760957095809590959B01AC01BE
:1007B000BD01CF010895A29FB001B39FC001A39FC7
:1007C000700D811D1124911DB29F700D811D11248A
:0807D000911D0895F894FFCF7C
:00000001FF
