:100000000C940C010C9439010C9439010C943901B5
:100010000C9439010C9439010C9439010C94390178
:100020000C9439010C9439010C9439010C94390168
:100030000C9439010C9439010C9439010C94390158
:100040000C9439010C9439010C9439010C94390148
:100050000C9439010C9439010C9439010C94C10AA7
:100060000C9439010C9477050C94BF060C9439015B
:100070000C9439010C9439010C9439010C94390118
:100080000C9439010C9439010C9439010C94390108
:100090000C94B7050C94FE060C9439010C943901AC
:1000A0000C9439010C9439010C9439010C943901E8
:1000B0000C9439010C9439010C9439010C943901D8
:1000C0000C9439010C9439010C9439010C94F70506
:1000D0000C943D070C9439010C9437060C947C0762
:1000E0000C9439017C3C3E5E2B3D3F2F5B5D3B2CED
:1000F0002A225C0000002100240027002A002D0095
:100100003000330001010000040107010A01000072
:100110002200250028002B002E00310034000201AF
:100120000000050108010B0100002000230026004B
:1001300029002C002F0032000001000003010601FD
:10014000090105050505070508080808020202025D
:100150000A0A080804040404010101010101010163
:100160000303030303030303040707070C0C0C0C2E
:100170000C0C0C0C02020202060606060606060617
:100180000B0B0B0B0B0B0B0B0102102020080810A4
:1001900020401020408002010201080402010102F7
:1001A00004081020408080402010080402018004D0
:1001B000020180402010080402010804020101022B
:1001C0000408102040800102040810204080000034
:1001D000090A02080B0C0D070603040100000000C9
:1001E000000000000000000000000000000000000F
:1001F0000000000000000000000011100F000000CF
:1002000000000000000000000000000000000000EE
:10021000000000005209900E11241FBECFEFD1E262
:10022000DEBFCDBF00E00CBF12E0A0E0B2E0E6E52B
:10023000F5E400E00BBF02C007900D92AA33B107AE
:10024000D9F71BBE17E0AAE3B2E001C01D92A134AA
:10025000B107E1F712E0C8E1D2E004C02297FE0145
:100260000E94A522C431D107C9F70E94880A0C94C4
:10027000A9220C940000FB01DC0104C08D910190C7
:10028000801921F441505040C8F7881B990B0895FC
:10029000FC018191861721F08823D9F799270895C9
:1002A0003197CF010895FB01DC014150504048F0E7
:1002B00001900D920020C9F701C01D92415050409D
:1002C000E0F70895FC01DB018091040290910502A2
:1002D0009183808380910602909107028D939C9375
:1002E000089508950F931F93CF93DF938C01C0E07F
:1002F000D0E08AE594E00E94A808892B41F08AE5C5
:1003000094E00E94D908F801808381E00CC061E08C
:1003100070E080E090E00E94170B2196F3E0C83E69
:10032000DF0739F780E0DF91CF911F910F9108959A
:10033000AF92BF92CF92DF92EF92FF920F931F93F3
:10034000CF93DF935A016B01EC01EE24FF24870168
:100350000FC0CE010E947201882379F08991882311
:1003600011F481E00BC00894E11CF11C011D111D6A
:10037000EA14FB040C051D0560F380E0DF91CF91CA
:100380001F910F91FF90EF90DF90CF90BF90AF90B3
:100390000895CF92DF92EF92FF920F931F93DF9316
:1003A000CF930F92CDB7DEB77C01FC011082118292
:1003B0001282138200E010E06E010894C11CD11C6F
:1003C000C6010E9472018823F9F0298130E040E0E3
:1003D00050E0002E04C0220F331F441F551F0A9403
:1003E000D2F7F70180819181A281B381820F931F9F
:1003F000A41FB51F80839183A283B383085F1F4F1F
:1004000000321105E9F681E00F90CF91DF911F9145
:100410000F91FF90EF90DF90CF900895682F8AE5BD
:1004200094E00E9412090895DF93CF930F92CDB705
:10043000DEB7CE0101960E947201882361F08BEE37
:1004400094E069810E948F11882329F08BE40E9437
:100450000E0281E004C086E40E940E0280E00F904C
:10046000CF91DF9108950F931F93DF93CF930F9256
:10047000CDB7DEB78E010F5F1F4FC8010E9472011A
:10048000882339F08981823521F40AC08981823735
:1004900081F080E00F90CF91DF911F910F9108952F
:1004A00088E50E940E02C8010E947201882389F328
:1004B000EDCF88E70E940E0281E0ECCFDF93CF936F
:1004C00000D00F92CDB7DEB78BE40E940E02CE01B2
:1004D00001960E94C901882381F029813A814B81CC
:1004E0005C81CA01AA27BB2790930502809304026E
:1004F000309307022093060281E00F900F900F9037
:100500000F90CF91DF910895EF92FF920F931F9379
:100510007B018C01862F0E940E028F2D0E940E02FD
:10052000802F0E940E02E12EFF24002711278E2D1E
:100530000E940E021F910F91FF90EF9008958F92ED
:100540009F92AF92BF92CF92DF92EF92FF920F9362
:100550001F93DF93CF93CDB7DEB7EB970FB6F89429
:10056000DEBF0FBECDBF8E010F5F1F4FC8016BEE08
:1005700074E040E052E021E00E946A10C8010E944D
:100580006F0D882381F543C08C8D882309F43FC00B
:10059000853EA1F18FA1887189F585E40E940E0244
:1005A0008601F80181918F010E940E020A151B0538
:1005B000C1F7ECA8FDA800E010E08701FF24EE24BD
:1005C0008AA99BA9A0E0B0E0E82AF92A0A2B1B2BF4
:1005D00068AD79AD8AAD9BAD0E948402C801B701B8
:1005E0000E9484020BC03CE1C32ED12CCC0EDD1E38
:1005F000480127E2A22EB12CAC0EBD1EC401B601EB
:1006000040E250E00E94960D809709F4BDCF8E0124
:100610000F5F1F4FC8010E947C0D80E00E940E02F8
:10062000C8010E941A0D81E0EB960FB6F894DEBF68
:100630000FBECDBFCF91DF911F910F91FF90EF9033
:10064000DF90CF90BF90AF909F908F9008956F9262
:100650007F928F929F92AF92BF92CF92DF92EF9252
:10066000FF920F931F93DF93CF93CDB7DEB7C9549B
:10067000D0400FB6F894DEBF0FBECDBF8EE40E940F
:100680000E02CE0144960E94070D8E010A5F1F4F95
:10069000C8014EE050E060E070E00E9498018823BD
:1006A00021F486E40E940E0299C0CE018F966BEE73
:1006B00074E0A80121E00E946A1089A99AA99F8B81
:1006C0008E8B8BA99CA9ADA9BEA9888F998FAA8F63
:1006D000BB8F8FA998ADA9ADBAAD8C8F9D8FAE8F12
:1006E000BF8FDE019096FE01FB968DE001900D928A
:1006F0008150E1F7FE01E85BFF4F808191819EA769
:100700008DA7CE018F960E941A0D8E010C5E1F4F91
:10071000C8010E946F0D882339F460E070E080E02A
:1007200090E00E9484025AC0C8010E945C0D0E94A1
:10073000840262E0662E712C6C0E7D1EC801902E24
:10074000C92E5CE8852E5E010894A11CB11C3CC03A
:100750008A819B81AC81BD810097A105B10529F0FB
:10076000EE24FF248701DD241DC0CE0144960E94A3
:100770007C0D11E034C0892D9C2D0E94A30D89832E
:100780000E940E02298198E0822F8D25D69480FD4B
:10079000D824915011F02695F7CF0894E11CF11C54
:1007A000011D111D8A819B81AC81BD81E816F9066E
:1007B0000A071B0700F3C5010E947201882351F04C
:1007C0008981833439F426C0C3010E94C90188237A
:1007D00009F0BECFCE0144960E947C0D10E0CE0100
:1007E00044960E941A0D812FC75BDF4F0FB6F89415
:1007F000DEBF0FBECDBFCF91DF911F910F91FF9054
:10080000EF90DF90CF90BF90AF909F908F907F90B0
:100810006F9008958D2D0E940E02D6CF4F925F9259
:100820006F927F928F929F92AF92BF92CF92DF9200
:10083000EF92FF920F931F93DF93CF93CDB7DEB765
:10084000C954D0400FB6F894DEBF0FBECDBF8EE4C2
:100850000E940E02CE0144960E94070D8E010A5F8F
:100860001F4FC8014EE050E060E070E00E94980128
:100870008823E9F18BEE94E0B8010E94410FCE018C
:100880008F966BEE74E0A80123E10E946A1089A99B
:100890009AA99F8B8E8B8BA99CA9ADA9BEA9888F85
:1008A000998FAA8FBB8F8FA998ADA9ADBAAD8C8F48
:1008B0009D8FAE8FBF8FDE019096FE01FB968DE07F
:1008C00001900D928150E1F7FE01E85BFF4F8081BE
:1008D00091819EA78DA7CE018F960E941A0D8E0141
:1008E0000C5E1F4FC8010E946F0D882321F486E41F
:1008F0000E940E0277C083E50E940E02CE0102968E
:100900000E94C901882309F46DC03E010894611C4E
:10091000711CC801502E892EECE84E2EEA80FB8017
:100920000C811D8181E4E816F1040105110528F010
:1009300070E4E72EF12C012D112DC801B7010E94A2
:100940008402E114F1040105110531F4CE0144964D
:100950000E947C0D11E047C0AA24BB2465019924A4
:10096000C3010E9472018823D1F0852D982D6981E1
:100970000E94200D298198E0822F8925969480FD80
:100980009424915011F02695F7CF0894A11CB11C26
:10099000C11CD11CAE14BF04C006D10608F383E409
:1009A0000E940E02C3010E9472018823B9F089815E
:1009B000981639F060E070E080E090E00E948402D8
:1009C0000DC08A819B81AC81BD818E199F09A00BCE
:1009D000B10B8A839B83AC83BD83A0CFCE014496A9
:1009E0000E947C0D10E0CE0144960E941A0D812FCA
:1009F000C75BDF4F0FB6F894DEBF0FBECDBFCF9100
:100A0000DF911F910F91FF90EF90DF90CF90BF90FB
:100A1000AF909F908F907F906F905F904F900895D0
:100A2000EF92FF921F93DF93CF930F92CDB7DEB774
:100A300010E07E010894E11CF11C02C010E002C02D
:100A4000112321F40E9433028823E1F3C7010E949D
:100A50007201882399F38981893471F08A3428F4EA
:100A60008434A9F0853461F721C08435D1F085350F
:100A700049F08C3429F710C0112311F70E94140299
:100A8000182FDECF1123E1F20E940E04D9CF1123DB
:100A9000B9F20E942703D4CF112391F20E949F0242
:100AA000CFCF112369F20E945E02CACF0F90CF917F
:100AB000DF911F91FF90EF9008950F931F930AE528
:100AC00014E0C80140E052EC61E070E00E94BB0716
:100AD00082E691E090933505809334050E941005DD
:100AE000C8010E9442081F910F91089508951F9216
:100AF0000F920FB60F920BB60F9211242F933F93C4
:100B00004F938F939F93EF93FF938091C00082FD4B
:100B10001DC04091C60020917A0230917B022F5F68
:100B20003F4F2F73307080917C0290917D02281787
:100B3000390771F0E0917A02F0917B02E65CFD4F9B
:100B4000408330937B0220937A0202C08091C600DA
:100B5000FF91EF919F918F914F913F912F910F9026
:100B60000BBE0F900FBE0F901F90189508951F9207
:100B70000F920FB60F920BB60F9211242F933F9343
:100B80004F938F939F93EF93FF938091C80082FDC3
:100B90001DC04091CE0020910203309103032F5FCE
:100BA0003F4F2F73307080910403909105032817F5
:100BB000390771F0E0910203F0910303EE53FD4F0A
:100BC0004083309303032093020302C08091CE0040
:100BD000FF91EF919F918F914F913F912F910F90A6
:100BE0000BBE0F900FBE0F901F90189508951F9287
:100BF0000F920FB60F920BB60F9211242F933F93C3
:100C00004F938F939F93EF93FF938091D00082FD3A
:100C10001DC04091D60020918A0330918B032F5F35
:100C20003F4F2F73307080918C0390918D03281764
:100C3000390771F0E0918A03F0918B03E65BFC4F7A
:100C4000408330938B0320938A0302C08091D600A7
:100C5000FF91EF919F918F914F913F912F910F9025
:100C60000BBE0F900FBE0F901F90189508951F9206
:100C70000F920FB60F920BB60F9211242F933F9342
:100C80004F938F939F93EF93FF938091300182FD59
:100C90001DC04091360120911204309113042F5F42
:100CA0003F4F2F73307080911404909115042817D2
:100CB000390771F0E0911204F0911304EE52FC4FE9
:100CC0004083309313042093120402C080913601B4
:100CD000FF91EF919F918F914F913F912F910F90A5
:100CE0000BBE0F900FBE0F901F901895E0916604F9
:100CF000F0916704E05CFF4F8191919120813181F7
:100D0000821B930B8F739070892B11F00E947605D4
:100D1000E0918804F0918904E05CFF4F819191910A
:100D200020813181821B930B8F739070892B11F07E
:100D30000E94B605E091AA04F091AB04E05CFF4F7D
:100D40008191919120813181821B930B8F739070DF
:100D5000892B11F00E94F605E091CC04F091CD04AE
:100D6000E05CFF4F8191919120813181821B930B37
:100D70008F739070892B11F00E94360608951F9290
:100D80000F920FB60F920BB60F9211242F933F9331
:100D90008F939F93EF93FF932091BE023091BF02F8
:100DA0008091C0029091C1022817390731F48091D7
:100DB000C1008F7D8093C10014C0E091C002F0910A
:100DC000C102E258FD4F20818091C0029091C10282
:100DD00001968F7390709093C1028093C00220930C
:100DE000C600FF91EF919F918F913F912F910F90AE
:100DF0000BBE0F900FBE0F901F9018951F920F9271
:100E00000FB60F920BB60F9211242F933F938F932F
:100E10009F93EF93FF932091460330914703809176
:100E20004803909149032817390731F48091C9008C
:100E30008F7D8093C90014C0E0914803F09149036D
:100E4000EA5FFC4F2081809148039091490301960D
:100E50008F73907090934903809348032093CE0042
:100E6000FF91EF919F918F913F912F910F900BBE2A
:100E70000F900FBE0F901F9018951F920F920FB6F4
:100E80000F920BB60F9211242F933F938F939F9342
:100E9000EF93FF932091CE033091CF038091D00345
:100EA0009091D1032817390731F48091D1008F7DBB
:100EB0008093D10014C0E091D003F091D103E257A8
:100EC000FC4F20818091D0039091D10301968F73C4
:100ED00090709093D1038093D0032093D600FF911C
:100EE000EF919F918F913F912F910F900BBE0F909B
:100EF0000FBE0F901F9018951F920F920FB60F9272
:100F00000BB60F9211242F933F938F939F93EF93E0
:100F1000FF9320915604309157048091580490918A
:100F200059042817390731F4809131018F7D80935E
:100F3000310114C0E0915804F0915904EA5EFB4F6E
:100F40002081809158049091590401968F7390707C
:100F5000909359048093580420933601FF91EF91A8
:100F60009F918F913F912F910F900BBE0F900FBECD
:100F70000F901F901895AF92BF92DF92EF92FF9261
:100F80000F931F93CF93DF93EC017A018B01DD2444
:100F9000403081EE580780E0680780E0780711F064
:100FA000DD24D39491E0A92EB12CEC89FD89DD20BC
:100FB00069F0C50108A002C0880F991F0A94E2F7E2
:100FC000808360E079E08DE390E005C0108260E806
:100FD00074E88EE190E0A80197010E9481222150DF
:100FE000304040405040569547953795279580E1D1
:100FF0002030380720F0DD2011F0DD24D6CFE8893D
:10100000F9893083EA89FB89208319A2EE89FF8957
:10101000408121E030E0C9010C8C02C0880F991F8B
:101020000A94E2F7482B4083EE89FF894081C90189
:101030000D8C02C0880F991F0A94E2F7482B408359
:10104000EE89FF894081C9010E8C02C0880F991F6B
:101050000A94E2F7482B4083EE89FF8980810F8C48
:1010600002C0220F331F0A94E2F720952823208321
:10107000DF91CF911F910F91FF90EF90DF90BF9084
:10108000AF900895CF93DF93DC011E968D919C91D4
:101090001F97EC01C05CDF4FFC01EE5BFF4F288126
:1010A00039818081918128173907C9F75696ED91CA
:1010B000FC915797408121E030E0C9015C960C908B
:1010C0005C9702C0880F991F0A94E2F780958423E9
:1010D00080835696ED91FC9157974081C9015D96AA
:1010E0000C905D9702C0880F991F0A94E2F78095D3
:1010F000842380835696ED91FC9157974081C901D6
:101100005E960C905E9702C0880F991F0A94E2F7D2
:101110008095842380835696ED91FC91579780812A
:101120005F960C905F9702C0220F331F0A94E2F77C
:101130002095282320831C96ED91FC911D97EE5B52
:10114000FF4F8081918192938293DF91CF91089597
:10115000DC011C96ED91FC911D97E05CFF4F219105
:10116000319180819181281B390B2F733070C90117
:101170000895DC011C96ED91FC911D97E05CFF4FFA
:1011800020813181E054F040DF01AE5BBF4F8D9193
:101190009C9111972817390719F42FEF3FEF07C0DB
:1011A0008D919C91E80FF91F8081282F30E0C901B3
:1011B0000895DC011C96ED91FC911D97E05CFF4FBA
:1011C00020813181E054F040DF01AE5BBF4F8D9153
:1011D0009C9111972817390719F42FEF3FEF10C092
:1011E0008D919C911197E80FF91F20818D919C9111
:1011F000119701968F73907011969C938E9330E0A7
:10120000C9010895DC0191968C919197882339F05A
:101210005496ED91FC915597808186FFF9CF919678
:101220001C920895CF93DF93EC01EE85FF85E05C7F
:10123000FF4F20813181E054F0402F5F3F4F2F73EB
:101240003070DF01AE5BBF4F8D919C9111972817D5
:101250003907D1F3E05CFF4F80819181E054F04089
:10126000E80FF91F6083EE85FF85E05CFF4F318357
:101270002083EE89FF89208181E090E00F8C02C0FD
:10128000880F991F0A94E2F7282B208381E089A315
:10129000EC89FD8980818064808381E090E0DF912A
:1012A000CF9108951F9310925D0410925C0428EE74
:1012B00033E040E050E020935E0430935F044093BD
:1012C00060045093610466E172E070935B04609384
:1012D0005A048AE392E090936704809366048EE751
:1012E00092E0909369048093680485EC90E0909379
:1012F0006B0480936A0484EC90E090936D04809377
:101300006C0480EC90E090936F0480936E0481EC09
:1013100090E0909371048093700482EC90E090933D
:1013200073048093720486EC90E09093750480932C
:10133000740414E010937604B3E0B0937704A7E04C
:10134000A0937804F5E0F0937904E1E0E0937A0467
:1013500010927F0410927E042093800430938104C5
:10136000409382045093830470937D0460937C04C3
:1013700082EC92E0909389048093880486E093E065
:1013800090938B0480938A048DEC90E090938D046D
:1013900080938C048CEC90E090938F0480938E0467
:1013A00088EC90E0909391048093900489EC90E015
:1013B00090939304809392048AEC90E09093950428
:1013C000809394048EEC90E090939704809396041D
:1013D00010939804B0939904A0939A04F0939B04FB
:1013E000E0939C041092A1041092A0042093A20404
:1013F0003093A3044093A4045093A50470939F04D6
:1014000060939E048AE493E09093AB048093AA04D3
:101410008EE893E09093AD048093AC0485ED90E06A
:101420009093AF048093AE0484ED90E09093B10468
:101430008093B00480ED90E09093B3048093B20465
:1014400081ED90E09093B5048093B40482ED90E038
:101450009093B7048093B60486ED90E09093B9041E
:101460008093B8041093BA04B093BB04A093BC0457
:10147000F093BD04E093BE041092C3041092C20422
:101480002093C4043093C5044093C6045093C7040A
:101490007093C1046093C00482ED93E09093CD04F7
:1014A0008093CC0486E194E09093CF048093CE04A3
:1014B00085E391E09093D1048093D00484E391E09C
:1014C0009093D3048093D20480E391E09093D50469
:1014D0008093D40481E391E09093D7048093D60461
:1014E00082E391E09093D9048093D80486E391E05D
:1014F0009093DB048093DA041093DC04B093DD0452
:10150000A093DE04F093DF04E093E0041F910895BC
:10151000CF93DF930E94700B0E945D05C6E7D6E073
:101520000E9471012097E1F30E947606F9CFCF92D5
:10153000DF92EF92FF920F931F93CF93DF937C0183
:101540006B018A01C0E0D0E00FC0D6016D916D0142
:10155000D701ED91FC910190F081E02DC701199523
:10156000C80FD91F015010400115110571F7CE01A8
:10157000DF91CF911F910F91FF90EF90DF90CF906F
:1015800008951F920F920FB60F9211242F933F933D
:101590008F939F93AF93BF938091E6049091E7045C
:1015A000A091E804B091E9043091EA040196A11DEC
:1015B000B11D232F2D5F2D3720F02D570196A11D32
:1015C000B11D2093EA048093E6049093E704A0936E
:1015D000E804B093E9048091E2049091E304A091BF
:1015E000E404B091E5040196A11DB11D8093E204CD
:1015F0009093E304A093E404B093E504BF91AF910A
:101600009F918F913F912F910F900FBE0F901F9040
:1016100018958FB7F8942091E6043091E704409133
:10162000E8045091E9048FBFB901CA0108959B01F4
:10163000AC017FB7F8948091E2049091E304A0910B
:10164000E404B091E50466B5A89B05C06F3F19F0AE
:101650000196A11DB11D7FBFBA2FA92F982F8827F2
:10166000860F911DA11DB11D62E0880F991FAA1F51
:10167000BB1F6A95D1F7BC012DC0FFB7F8948091CC
:10168000E2049091E304A091E404B091E504E6B58E
:10169000A89B05C0EF3F19F00196A11DB11DFFBF2A
:1016A000BA2FA92F982F88278E0F911DA11DB11D2C
:1016B000E2E0880F991FAA1FBB1FEA95D1F7861B8E
:1016C000970B885E9340C8F2215030404040504014
:1016D00068517C4F211531054105510571F608957A
:1016E000789484B5826084BD84B5816084BD85B5FD
:1016F000826085BD85B5816085BDEEE6F0E08081C4
:1017000081608083E1E8F0E01082808182608083E4
:10171000808181608083E0E8F0E080818160808367
:10172000E1EBF0E0808184608083E0EBF0E0808199
:1017300081608083E1E9F0E0808182608083808144
:1017400081608083E0E9F0E0808181608083E1EA6C
:10175000F0E0808182608083808181608083E0EA24
:10176000F0E0808181608083E1E2F1E0808182604D
:101770008083808181608083E0E2F1E0808181600C
:101780008083EAE7F0E080818460808380818260EA
:1017900080838081816080838081806880831092D3
:1017A000C10008950F931F93CF93DF93BC01823044
:1017B000910510F462E070E0E0913F07F09140077E
:1017C00040E050E0A0E0B0E024C080819181861725
:1017D0009707D0F08617970771F48281938110974D
:1017E00029F013969C938E9312972CC090934007E8
:1017F00080933F0727C04115510519F084179507BD
:1018000018F48D01AC01EF01DF01828193819C010D
:10181000F9013097D1F641155105F9F0CA01861B3F
:10182000970B8430910580F48A819B810115110505
:1018300021F0F8019383828304C090934007809342
:101840003F07FE01329645C0FE01E80FF91F619384
:1018500071930297998388833CC080913D07909152
:101860003E07892B41F480910A0290910B029093DC
:101870003E0780933D0740910C0250910D024115A7
:10188000510541F44DB75EB780910802909109026D
:10189000481B590B20913D0730913E07241735070F
:1018A000B0F4CA01821B930B8617970780F0AB0137
:1018B0004E5F5F4F8417950750F0420F531F5093B0
:1018C0003E0740933D07F9016193719302C0E0E048
:1018D000F0E0CF01DF91CF911F910F910895CF9349
:1018E000DF939C01009709F48FC0EC0122971B82C3
:1018F0001A8260913F07709140076115710581F46C
:1019000088819981820F931F20913D0730913E0776
:101910002817390739F5D0933E07C0933D0774C0A7
:10192000DB0140E050E0AC17BD0708F1BB83AA83A0
:10193000FE0121913191E20FF31FAE17BF0779F439
:101940008D919C911197280F391F2E5F3F4F39833E
:10195000288312968D919C9113979B838A834115BE
:10196000510571F4D0934007C0933F074DC01296C4
:101970008D919C911397AD01009711F0DC01D3CFAD
:10198000DA011396DC93CE931297FA0121913191EB
:10199000E20FF31FCE17DF0769F488819981280FC2
:1019A000391F2E5F3F4FFA01318320838A819B814B
:1019B00093838283E0E0F0E0DB0112968D919C91AD
:1019C0001397009719F0BC01FD01F6CFAB014E5FF4
:1019D0005F4FDB018D919C91840F951F20913D07F6
:1019E00030913E072817390779F4309729F410927F
:1019F000400710923F0702C01382128242505040AB
:101A000050933E0740933D07DF91CF910895FC012D
:101A10001382128288EE93E0A0E0B0E08483958385
:101A2000A683B78386E292E091838083128E118E23
:101A300014860895FC0186E292E0918380830895E4
:101A4000DF93CF930F92CDB7DEB7FC016983A081FE
:101A5000B18112962D913C911397BE016F5F7F4F1C
:101A600041E050E0F90119950F90CF91DF91089571
:101A7000DC015996ED91FC915A97309719F420E0CA
:101A800030E018C023893489458956898285938539
:101A9000A485B585281B390B4A0B5B0B2030B0E8B9
:101AA0003B07B0E04B07B0E05B0720F02FEF3FE7CC
:101AB00040E050E0C9010895DC015996ED91FC9198
:101AC0005A97309729F420E030E040E050E004C01D
:101AD0002389348945895689B901CA010895DC01F1
:101AE0005996ED91FC915A97309711F480E0089542
:101AF0008581811181E00895CF93DF93EC01898D79
:101B00009A8D009741F00E941F16898D9A8D0E9430
:101B10006F0C1A8E198EDF91CF910895FC01818D83
:101B2000928D009711F00E94D5150895FC01818DCA
:101B3000928D009719F420E030E003C00E94121744
:101B40009C01C9010895DF93CF930F92CDB7DEB703
:101B5000FC01818D928D009749F0BE016F5F7F4F30
:101B600041E050E00E941217019719F02FEF3FEF6C
:101B700003C08981282F30E0C9010F90CF91DF91F8
:101B80000895EF92FF920F931F93DF93CF930F92DD
:101B9000CDB7DEB77C01DC0159968D919C915A97A7
:101BA000009719F400E010E01FC0BE016F5F7F4F87
:101BB00041E050E00E941217019719F00FEF1FEF5C
:101BC00013C08981082F10E0D7015996ED91FC913F
:101BD0005A974285538564857585415050406040D1
:101BE0007040CF010E940F15C8010F90CF91DF9177
:101BF0001F910F91FF90EF900895CF93DF93EC0129
:101C0000E98DFA8D309761F013821282CF010E9424
:101C100057199C01E98DFA8D82819381892B31F0CE
:101C200081E090E09B838A8320E030E0C901DF916E
:101C3000CF910895EF92FF920F931F93CF93DF936D
:101C4000EC01F62EE72E8A011B821A8288EE93E0C1
:101C5000A0E0B0E08C839D83AE83BF8386E292E0F8
:101C6000998388838DE190E00E94D20B9A8F898FAF
:101C7000009791F0DC018F2D9E2D9C01F9018DE1E3
:101C800001900D928150E1F7CE010C96B8014CE025
:101C900050E00E945301188EDF91CF911F910F9158
:101CA000FF90EF9008950F931F93CF93DF938C01D4
:101CB000FB01C081D181FC01EC0FFD1F80818F32BF
:101CC00009F4219698012C0F3D1FA0E0B0E00BC055
:101CD000FA01EA0FFB1F8083119621962F5F3F4F79
:101CE000AC30B10531F0F90180818F3211F08823D9
:101CF00079F7A40FB51F1C92F801EC0FFD1F80812E
:101D00008F3209F42196FB01D183C083C00FD11F0C
:101D10008881811181E0DF91CF911F910F9108950A
:101D20001092F0041092F1041092F4041092F60450
:101D300082E090E0A0E0B0E08093F7049093F80494
:101D4000A093F904B093FA0410920E0510921805AE
:101D50001092170586E392E090931605809315057F
:101D600010921A0508952F923F924F925F926F92B0
:101D70007F928F929F92BF92CF92DF92EF92FF92CB
:101D80000F931F93DF93CF93CDB7DEB7C954D040E5
:101D90000FB6F894DEBF0FBECDBF1C017B012A0138
:101DA00039011B8A1A8A86E392E0998B888B1D8AF7
:101DB00018AA1FA69EA78DA71AAA1A8219828B019C
:101DC00020E1C22ED12CCC0EDD1E93E0892E912C69
:101DD0008C0E9D1E03C0C80186016C01C101BE01AD
:101DE0006F5F7F4FA4010E94530EB82E40E08823FE
:101DF00009F441E0C801B4019301F2011995882367
:101E000039F40E151F0519F1C8010E941F161FC0D5
:101E1000BB20A9F0C601B801A40121E00E94831BE8
:101E2000B82E0E151F0519F0C8010E941F16BB2001
:101E300071F00E151F0579F6CE018D96CDCF0E15DA
:101E40001F0519F0C8010E941F1681E001C080E043
:101E5000C75BDF4F0FB6F894DEBF0FBECDBFCF918B
:101E6000DF911F910F91FF90EF90DF90CF90BF9087
:101E70009F908F907F906F905F904F903F902F90AA
:101E800008959B01BC01665D7F4FC9014AEB51E19A
:101E900020E030E00E94B30E08952F923F924F92BF
:101EA0005F926F927F928F929F92AF92BF92CF92EA
:101EB000DF92EF92FF920F931F93DF93CF93CDB7F3
:101EC000DEB7C754D0400FB6F894DEBF0FBECDBF0B
:101ED000582E492EFB013A01190184A595A5998B2D
:101EE000888B26E332E03F872E8786A58A8B87A5DD
:101EF0008B8B80A991A9A2A9B3A98C8B9D8BAE8B4A
:101F0000BF8B84A995A9A6A9B7A9888F998FAA8FF5
:101F1000BB8F80AD91ADA2ADB3AD8C8F9D8FAE8FD9
:101F2000BF8F84AD88A3FD9681919191A191B191CC
:101F300089A39AA3ABA3BCA381919191A191B191E3
:101F40008DA39EA3AFA3B8A7808191819AA789A7EB
:101F50001EA61DA63CA72BA718AA7A018E01025F18
:101F60001F4F3BE2A32EB12CAC0EBD1E4E010894B8
:101F7000811C911C35C0D7018C918F3221F40894BB
:101F8000E11CF11C2DC0422F4E194D3008F04CE0E1
:101F9000C42EDD24C401B701A6010E945301F4013F
:101FA000EC0DFD1D1082C5010E941F16C501B80170
:101FB000A40121E00E94831B882351F4E52DF42D18
:101FC0001382128286E392E091838083158266C039
:101FD000EC0CFD1CC8010E941F16C50158018C01A4
:101FE000C7016FE270E00E9448019C01009719F65A
:101FF000E618F708F101F182E082E52DF42DD80111
:1020000012968D919C9113979383828386E392E03D
:102010009183808314968C911497848315968C9168
:102020001597858316962D913D914D915C91199749
:1020300026833783408751871A962D913D914D9184
:102040005C911D9722873387448755871E962D9173
:102050003D914D915C91519726873787408B518BED
:1020600052968C915297828B53962D913D914D9122
:102070005C915697238B348B458B568B57962D91BD
:102080003D914D915C915A97278B308F418F528FA4
:102090005B968D919C915C97948F838F852D942D69
:1020A000C95BDF4F0FB6F894DEBF0FBECDBFCF9137
:1020B000DF911F910F91FF90EF90DF90CF90BF9035
:1020C000AF909F908F907F906F905F904F903F90D8
:1020D0002F9008959F92AF92BF92CF92DF92EF928E
:1020E000FF920F931F93DF93CF93CDB7DEB7C65701
:1020F000D0400FB6F894DEBF0FBECDBFC82E992ECC
:102100008A01D22E43E0A42EB12CAC0EBD1EC50117
:10211000A8019E012F5F3F4F0E944D0FE980FA807A
:10212000E00EF11EF701808146E352E02885882306
:1021300009F03FC08D819E819BA38AA359A348A328
:102140008F818CA32DA389859A85AB85BC858EA3B1
:102150009FA3A8A7B9A78D859E85AF85B8898AA7B3
:102160009BA7ACA7BDA789899A89AB89BC898EA793
:102170009FA7A8ABB9AB8D898AAB8E899F89A88DA3
:10218000B98D8BAB9CABADABBEAB8A8D9B8DAC8D53
:10219000BD8D8FAB98AFA9AFBAAF8E8D9F8D9CAF21
:1021A0008BAF8C2D992DBE01605E7F4F42E052E0D7
:1021B0009FC0FE01FF96118210825EAF4DAFFE01FF
:1021C000EE5BFF4F10822223A9F02250CE01CD9664
:1021D000223048F465E175E0A7012D2D0E94831B94
:1021E000882381F407C0B501A7012D2D0E94831B10
:1021F000882329F48C2D992D0E94070D7BC0C501E1
:102200000E941F16F6E0DF2259F0FE01E05BFF4F4F
:102210004081518162817381CE01CD960E940F155C
:102220009E01265A3F4FFE01FF9680819181F90160
:102230009383828386E392E091838083FE01EF5B48
:10224000FF4F8081F9018483FE01EE5BFF4F8081A7
:10225000F9018583FE01ED5BFF4F80819181A281B1
:10226000B381F90186839783A087B187FE01E95B7B
:10227000FF4F80819181A281B381F9018287938789
:10228000A487B587FE01E55BFF4F80819181A28124
:10229000B381F90186879787A08BB18BFE01E15B43
:1022A000FF4F8081F901828BFE01E05BFF4F80814F
:1022B0009181A281B381F901838B948BA58BB68B1D
:1022C000FE01EC5AFF4F80819181A281B381F90117
:1022D000878B908FA18FB28FFE01E85AFF4F8081CC
:1022E0009181F901948F838F8C2D992DB901A701CC
:1022F0000E941A0E8C2D992DCA58DF4F0FB6F894F4
:10230000DEBF0FBECDBFCF91DF911F910F91FF9028
:10231000EF90DF90CF90BF90AF909F9008950F9374
:102320001F93CF93DF93EC01462F61E00E94FB13D4
:102330008823D1F08E01045F1F4FC801BE0141E028
:102340000E94511D882339F4C801BE0140E00E945B
:10235000511D882349F0CE018A96B8010E94711858
:10236000882319F081E001C080E0DF91CF911F91B7
:102370000F910895442311F481E008950E948A1C6E
:102380000895FC01673020F086E1858380E00895A0
:10239000262F30E060FD02C0663019F48DB58E7FC7
:1023A00002C08DB581608DBD8CB58C7F8CBD4CB568
:1023B00022FD02C090E001C092E036952795822F61
:1023C0008170842B892B8CBD81E00895FF920F933F
:1023D0001F93CF93DF938B010E94090BEB01FF2426
:1023E000FA94FEBC0DB407FEFDCF8EB58F3F11F4FD
:1023F00081E008C00E94090B6C1B7D0B6017710700
:1024000080F380E0DF91CF911F910F91FF900895AD
:10241000FC01848160E00E942F220895FC018481E8
:1024200061E00E942F220895DC016EBDFA0120E0D8
:1024300030E00DB407FEFDCF80818EBD0DB407FEE8
:10244000FDCF81818EBD2E5F3F4F329682E02030DE
:10245000380779F70DB407FEFDCF8FEF8EBD0DB4B1
:1024600007FEFDCF8FEF8EBD0DB407FEFDCF8FEFC2
:102470008EBD0DB407FEFDCF8EB51A968C931A97BC
:102480008F71853011F481E0089581E115968C9368
:102490001597CD010E940E1280E00895FF920F93D0
:1024A0001F93CF93DF93EC010E94090B8B01FF2454
:1024B000FA9409C00E94090B601B710B6D527140A8
:1024C00010F08FE00DC0FEBC0DB407FEFDCF8EB541
:1024D0008A878F3F79F38E3F11F481E006C08DE04B
:1024E0008D83CE010E940E1280E0DF91CF911F916B
:1024F0000F91FF900895CF93DF93EC018E81882395
:10250000D1F08FEF8EBD2F8138854FEF04C00DB411
:1025100007FEFDCF4EBD2F5F3F4FC9010197815090
:102520009240A8F338872F830DB407FEFDCFCE016C
:102530000E940E121E82DF91CF910895DF92EF92DA
:10254000FF920F931F93CF93DF93EC01D62E790167
:102550008A010E947B12CE010E940812CE016CE219
:1025600071E00E94E6118D2D80648EBD0DB407FED2
:10257000FDCF28E130E0D801C701022E04C0B69596
:10258000A795979587950A94D2F78EBD0DB407FE4F
:10259000FDCF285030408FEF283F380761F7DD200E
:1025A00011F485E906C088E0D81611F487E801C067
:1025B0008FEF8EBD0DB407FEFDCF90E02FEF2EBD47
:1025C0000DB407FEFDCF8EB587FF02C09150B9F75D
:1025D0008A87DF91CF911F910F91FF90EF90DF904D
:1025E0000895CF92DF92EF92FF920F931F93CF93B4
:1025F000DF93EC017A018B016901411551056105F9
:10260000710511F482E137C08B85833039F029E000
:10261000EE0CFF1C001F111F2A95D1F7CE0168E1B7
:10262000A80197010E949E12882311F084E023C024
:10263000CE016EEFA6010E9414128823E9F0CE01AC
:1026400068E572E00E94E611882311F485E113C069
:10265000CE016DE020E030E040E050E00E949E12AC
:10266000882341F48FEF8EBD0DB407FEFDCF8EB5EC
:10267000882379F084E18D83CE010E940E1280E0E0
:10268000DF91CF911F910F91FF90EF90DF90CF904E
:102690000895CE010E940E1281E0F2CF8F929F9298
:1026A000AF92BF92CF92DF92EF92FF920F931F9360
:1026B000CF93DF93EC015A016B014901011511051C
:1026C00009F47BC0C801820F931F8150924008F02B
:1026D0006FC08E81882371F088819981AA81BB8126
:1026E000481759076A077B0729F48F819885881650
:1026F000990618F5A882B982CA82DB828B8583305D
:1027000039F069E0AA0CBB1CCC1CDD1C6A95D1F722
:10271000CE0161E1A60195010E949E12882319F065
:1027200083E08D8345C0CE010E944E12882309F4B8
:102730003FC018861F8281E08E838FEF8EBD8F8110
:1027400098852FEF05C00DB407FEFDCF2EBD019675
:1027500088159905C0F398878F83D801119720E0D9
:1027600030E09FEF0BC00DB407FEFDCF8EB5F70133
:10277000E20FF31F80839EBD2F5F3F4F2A173B0759
:1027800090F30DB407FEFDCF8EB5AE0DBF1D8C933B
:102790002F813885200F311F38872F838985882323
:1027A00019F02050324048F0CE010E947B1205C043
:1027B000CE010E940E1280E001C081E0DF91CF9136
:1027C0001F910F91FF90EF90DF90CF90BF90AF904F
:1027D0009F908F900895EF92FF920F931F9379012E
:1027E00020E030E000E012E00E944E131F910F91B4
:1027F000FF90EF900895BF92CF92DF92EF92FF92F9
:102800000F931F93CF93DF93EC01B62E1B8619868F
:102810001E821D824C830E94090B6B018C8161E03A
:102820000E947C21CE010E940E1282E360E00E9491
:102830007C2183E361E00E947C2184E361E00E94CB
:102840007C2185E361E00E947C2185E361E00E94B8
:102850002F2283E58CBD8DB58E7F8DBD80E09FEFEF
:102860009EBD0DB407FEFDCF8F5F8A30C9F7CE0144
:102870000E94081209C00E94090B6C197D09615D54
:10288000774010F081E05EC0CE0160E020E030E0F3
:1028900040E050E00E949E12182F8A87813059F73D
:1028A000CE0168E02AEA31E040E050E00E949E124A
:1028B00082FF02C01B8711C080E02FEF2EBD0DB438
:1028C00007FEFDCF9EB58F5F8430C1F79A879A3A95
:1028D00011F082E037C082E08B878B85823021F057
:1028E000EE24FF2487010FC0E12CF12C012DF0E430
:1028F0001F2F09C00E94090B6C197D09615D77408B
:1029000010F088E01FC0CE0167E320E030E040E037
:1029100050E00E949E12CE0169E2A80197010E9438
:102920009E128A87882331F78B85823031F5CE015C
:102930006AE320E030E040E050E00E949E128823ED
:1029400039F086E08D83CE010E940E1280E01CC01B
:102950008FEF8EBD0DB407FEFDCF8EB5807C803C21
:1029600011F483E08B8780E09FEF9EBD0DB407FEDE
:10297000FDCF2EB58F5F8330C1F7CE010E940E12BE
:10298000CE016B2D0E94C111DF91CF911F910F914C
:10299000FF90EF90DF90CF90BF900895CF93DF939B
:1029A000EC01DB0180E090E020E2FD01E80FF91F7F
:1029B000208301968B309105C1F757E040E021C09C
:1029C0002E3219F084EE90E007C05A3019F15AE027
:1029D00048E017C03217F1F0FC010196349133231F
:1029E000C9F75417B8F02132A8F02F3798F4822F86
:1029F00081568A3108F42052FD01E40FF11D208335
:102A00004F5F29912223E1F690E08C91803219F0FA
:102A100091E001C090E0892FDF91CF9108956F92EE
:102A20007F928F929F92AF92BF92CF92DF92EF925E
:102A3000FF920F931F93CF93DF93EC017A018B01E9
:102A40002D81222309F480C08B899C89AD89BE89A0
:102A500084179507A607B70708F476C085C0E11468
:102A6000F1040105110549F41E821F82188619869A
:102A70001A861B861C861D8665C02A853B854C856B
:102A80005D85EB8DFC8D858590E009962150304069
:102A90004040504039014A01082E04C09694879462
:102AA000779467940A94D2F72F5F3F4F4F4F5F4F51
:102AB0000894E108F108010911095701680104C0EF
:102AC000D694C794B794A7948A95D2F70894E11C3A
:102AD000F11C011D111DA614B704C804D90428F067
:102AE000211531054105510549F48F89988DA98D2E
:102AF000BA8D8E839F83A887B98716C0A618B7089A
:102B0000C808D90811C04E815F81688579858B8D91
:102B10009C8D94010E94321F0894A108B108C1083D
:102B2000D108882331F410C086E0882E912C8C0EB9
:102B30009D1EA114B104C104D10429F7EA86FB86C5
:102B40000C871D8781E001C080E0DF91CF911F914C
:102B50000F91FF90EF90DF90CF90BF90AF909F903C
:102B60008F907F906F900895223009F078CFE6CF54
:102B7000CF93DF93EC01462F6E857F8588899989F5
:102B80000E94161D882319F420E030E00AC08A89CB
:102B9000282F30E095E0220F331F9A95E1F72A5C49
:102BA0003A4FC901DF91CF9108950F931F93CF93AF
:102BB000DF938C01FC0185818823D9F1848187FF13
:102BC00035C0C80161E00E94B815EC01009789F199
:102BD000F8018581823040F483899489A589B6897A
:102BE0008C8F9D8FAE8FBF8FF8018789908D9B8FC3
:102BF0008A8F8789908DA18DB28DCD01AA27BB27A1
:102C00009D8B8C8BE0913405F0913505309751F018
:102C1000BE016A5E7F4FCE0148961995888D998DC9
:102C20009B8B8A8BF80184818F7784830E94B71CE9
:102C300001C080E0DF91CF911F910F910895CF9354
:102C4000DF93EC010E94D515882311F01D8281E0ED
:102C5000DF91CF9108956F927F928F929F92AF9262
:102C6000BF92CF92DF92EF92FF920F931F93DF9369
:102C7000CF9300D00F92CDB7DEB77C015A016B0124
:102C8000DC0115968C911597813009F08FC0149650
:102C90008C9181FF8BC09EC00097A105B10511F4F6
:102CA00081E085C0F7016284738484849584C701C0
:102CB000B601A5010E940F15882309F477C0D7013A
:102CC0005B968D919C915C97A114B104C104D104D1
:102CD00089F457964D915D916D917C915A970E9420
:102CE000A51F882309F462C0F701178A108E118E80
:102CF000128E3DC0D70116964D915D916D917C91DC
:102D000019979E012F5F3F4F0E94321F882309F4BD
:102D10004DC0D7015B96ED91FC915C9749815A813A
:102D20006B817C818789803129F088EF9FEFAFEF3D
:102D3000BFE004C088EF9FEFA0E0B0E0481759075C
:102D40006A077B07A0F4CF010E94A51F882371F1B9
:102D5000F7014681578160857185838D948D0FEFD2
:102D60001FEF2FEF3FE00E94961E8823F9F0D70156
:102D70005396AD92BD92CD92DC92569714968C915B
:102D80001497806814968C93C7010E94D5158823E8
:102D900069F0B601A5016A147B048C049D0410F44B
:102DA000B401A301C7010E940F1501C080E00F907C
:102DB0000F900F900F90CF91DF911F910F91FF9087
:102DC000EF90DF90CF90BF90AF909F908F907F90CB
:102DD0006F900895F70183899489A589B68984172E
:102DE0009507A607B70708F057CFE0CFCF93DF933B
:102DF000EC0140E050E060E070E00E942B16882378
:102E000069F0CE0161E00E94B815FC01009731F035
:102E100085EE80831D820E94B71C01C080E0DF9197
:102E2000CF9108952F923F924F925F926F927F922F
:102E30008F929F92AF92BF92CF92DF92EF92FF92CA
:102E40000F931F93CF93DF93EC012A018D81882389
:102E500009F4C6C08C8180FFC3C0D8C025014E18BC
:102E60005F084B0176E0272E312C2C0E3D1E3201DF
:102E7000B1C02A853B854C855D856FEFA62E61E04C
:102E8000B62EA222B3228D8179018A0199E016958E
:102E90000795F794E7949A95D1F7EB8DFC8D8230E6
:102EA00049F4428D538D648D758D4E0D5F1D601FED
:102EB000711F3FC0D480DA94DE20A114B104D9F48C
:102EC000DD20C9F4211531054105510549F48F89EB
:102ED000988DA98DBA8D8E839F83A887B9870BC0E3
:102EE0004E815F8168857985CF0191010E94321FF3
:102EF000882309F475C0EB8DFC8D4E815F81688558
:102F000079854250504060407040058404C0440FB1
:102F1000551F661F771F0A94D2F786859785A0896B
:102F2000B189480F591F6A1F7B1F4D0D511D611D2F
:102F3000711D80E092E08A199B096301861597054F
:102F400008F46C018C8186FD06C080E0C81682E022
:102F5000D80609F073C080910E0290910F02A091E3
:102F60001002B0911102481759076A077B0709F44C
:102F700065C08091360790913707950186017401ED
:102F80000E944E13882361F18C0C9D1C12C0950188
:102F90002A5C3A4FA9014C0D5D1DD401F90102C014
:102FA00081918D93E417F507D9F7E21BF30B8E0E91
:102FB0009F1E960140E050E08A859B85AC85BD85CB
:102FC000820F931FA41FB51F8A879B87AC87BD877D
:102FD0006C187D086114710409F04BCFA20102C086
:102FE0004FEF5FEFCA01DF91CF911F910F91FF90DB
:102FF000EF90DF90CF90BF90AF909F908F907F9099
:103000006F905F904F903F902F900895AB88BC8851
:10301000CD88DE88EA84FB840C851D859A0140E01A
:1030200050E0D601C5018E199F09A00BB10B821784
:103030009307A407B50708F411CF13CFCB01BA014A
:1030400040E00E94161D882309F0A1CFC9CFCF927E
:10305000DF92EF92FF920F931F93DF93CF930F9224
:10306000CDB7DEB76C01FC018581823070F0E2845F
:10307000F38404851585C601BE016F5F7F4F41E073
:1030800050E00E941217019769F020E030E0C9017A
:103090000F90CF91DF911F910F91FF90EF90DF90F4
:1030A000CF900895F60182859385A485B5854F96C6
:1030B000A11DB11D82879387A487B587F5E016957A
:1030C0000795F794E794FA95D1F78E2D8F70282FF6
:1030D00030E0E5E0220F331FEA95E1F72A5C3A4F32
:1030E000D6CF0F931F93CF93DF93EC018B018D818C
:1030F000882309F041C0FB0187898031B1F482E067
:103100008D831F8A188E198E1A8E808D918DA0E066
:10311000B0E045E0880F991FAA1FBB1F4A95D1F761
:103120008B8B9C8BAD8BBE8B15C0803229F583E0D9
:103130008D83FB01428D538D648D758D4F8B588F20
:10314000698F7A8F9E012D5E3F4FC8010E94FE1F3E
:10315000882391F01C8F0B8F81E08C831E821F824D
:10316000188619861A861B861C861D861E861F8653
:10317000188A198A1A8A01C080E0DF91CF911F91C5
:103180000F9108951F93CF93DF93EC01142FE62F37
:10319000F0E075E0EE0FFF1F7A95E1F7EA5CFA4F79
:1031A0008385817121F0842F827409F054C06A8B69
:1031B00080910E0290910F02A0911002B091110225
:1031C0008E879F87A88BB98B84899589A0E0B0E012
:1031D000BC0155274427828D938DA0E0B0E0482B99
:1031E000592B6A2B7B2B4F8B588F698F7A8F838556
:1031F00090E088719070009751F4848D958DA68D24
:10320000B78D8B8B9C8BAD8BBE8B81E00CC04097B8
:1032100011F59E012D5E3F4F8B8D9C8D0E94FE1FF0
:103220008823C9F084E08D83812F8F708C831E8268
:103230001F82188619861A861B861C861D8616FD17
:1032400002C081E009C0CE0140E050E060E070E0E3
:103250000E942B1601C080E0DF91CF911F9108954D
:10326000CF93DF93EC019C012A5F3F4F8B8D9C8DA8
:1032700041E050E060E070E00E946D208823A1F002
:103280008F89988DA98DBA8D0097A105B10559F444
:103290008E819F81A885B9858F8B988FA98FBA8FD2
:1032A0008C8180688C8381E0DF91CF9108952F928B
:1032B0003F924F925F927F928F929F92AF92BF9276
:1032C000CF92DF92EF92FF920F931F93DF93CF93F2
:1032D00000D000D0CDB7DEB76C01162F072F5E836C
:1032E0004D83DC0115968C911597813009F070C1E2
:1032F00014968C9181FF6CC18EC1F601438954896B
:103300006589768982859385A485B5858417950717
:10331000A607B70731F0C6010E940F15882309F4EC
:1033200057C1812F902F9C0129012D803E8017C10C
:10333000D6015B96ED91FC915C97DA01C90119E029
:10334000B695A795979587951A95D1F774807A9435
:1033500078227FEF872E71E0972E822293227720AA
:1033600009F04EC08114910409F04AC0D6011696A6
:103370004D915D916D917C911997411551056105B4
:10338000710581F457968D919D910D90BC91A02D62
:103390000097A105B10549F1F60186839783A087BF
:1033A000B1872EC0CF019E012F5F3F4F0E94321F79
:1033B000882309F414C129813A814B815C81D601AB
:1033C0005B96ED91FC915C978789803129F088EFBD
:1033D0009FEFAFEFBFE004C088EF9FEFA0E0B0E049
:1033E000281739074A075B0730F0C6010E943019D9
:1033F000882331F4EDC0F601268337834087518757
:1034000080E092E08819990951018215930508F42A
:103410005C01D6015B96ED91FC915C971696ED9060
:10342000FD900D911C9119978EEF9FEFAFEFBFEFBD
:10343000E80EF91E0A1F1B1F058404C0EE0CFF1CBA
:10344000001F111F0A94D2F786859785A089B1893C
:10345000E80EF91E0A1F1B1FE70CF11C011D111DB0
:1034600090E0A91692E0B90651F580910E02909174
:103470000F02A0911002B09111028E159F05A007B6
:10348000B10761F48FEF9FEFAFEFBFEF80930E02B4
:1034900090930F02A0931002B0931102809136070F
:1034A00090913707B801A70192010E94F112882379
:1034B00009F48EC0A0E0B2E04A0E5B1E3EC081144B
:1034C000910409F5F6012285338544855585838964
:1034D0009489A589B689281739074A075B0798F0A8
:1034E0000E94B71C882309F473C0E0920E02F09288
:1034F0000F0200931002109311028091380781602F
:103500008093380708C0C801B70141E00E94161D2A
:10351000882309F45DC094012A5C3A4FA9014A0D41
:103520005B1DD201F90102C08D918193E417F5076B
:10353000D9F7E21BF30B4E0E5F1E2A183B089501CC
:1035400040E050E0F60182859385A485B585820F21
:10355000931FA41FB51F82879387A487B587D601C1
:103560001A962D913D914D915C911D972114310436
:1035700009F0DECE53968D919D910D90BC91A02DBA
:1035800082179307A407B50748F4F601238B348B01
:10359000458B568B84818068848311C0809134056B
:1035A00090913505892B59F08D819E81892B39F0B9
:1035B000D60114968C911497806814968C93F6011A
:1035C000848183FF0EC0C6010E94D515882349F46B
:1035D00081E090E0D60113969C938E9312971E8201
:1035E0001D828D819E8126960FB6F894DEBF0FBE98
:1035F000CDBFCF91DF911F910F91FF90EF90DF90A2
:10360000CF90BF90AF909F908F907F905F904F90A2
:103610003F902F90089582FD70CE83CEDF93CF939D
:103620000F92CDB7DEB76983BE016F5F7F4F41E078
:1036300050E00E9457190F90CF91DF910895DF92CB
:10364000EF92FF920F931F93CF93DF93EC010E94B1
:103650003019882309F44EC0EB8DFC8DEE80FF807D
:10366000088519858EEF9FEFAFEFBFEFE80EF91ECB
:103670000A1F1B1F058404C0EE0CFF1C001F111F36
:103680000A94D2F786859785A089B189E80EF91E3C
:103690000A1F1B1FD4800894E108F10801091109D1
:1036A0000BC0C801B7016D0D711D811D911D0E94D8
:1036B000F21C8823F9F0DA94DD2099F7EB8DFC8D6C
:1036C00020E032E040E050E0058404C0220F331FC8
:1036D000441F551F0A94D2F78B899C89AD89BE89F6
:1036E000820F931FA41FB51F8B8B9C8BAD8BBE8B42
:1036F00081E001C080E0DF91CF911F910F91FF9099
:10370000EF90DF9008956F927F928F929F92AF9289
:10371000BF92CF92DF92EF92FF920F931F93DF93AE
:10372000CF93CDB7DEB72B970FB6F894DEBF0FBEA1
:10373000CDBF5C016B01822EDC0115968C91882334
:1037400009F0D2C0CA018E010F5F1F4FB8010E945D
:10375000CE14882309F4C8C0F601838D948DD50159
:103760005C969C938E935B971682178210861186C7
:10377000D6011A961D921D921D921C921D97992496
:10378000380141C0C6010E942718FC01009709F4C6
:10379000ABC085E016950795F794E7948A95D1F725
:1037A0001E2D1F708081882311F0853ED1F4992051
:1037B00091F4D50152961C93529720910E023091AC
:1037C0000F0240911002509111021E962D933D93CD
:1037D0004D935C9351978081882399F49924939415
:1037E00021C0C301BF014BE050E00E943B010097A4
:1037F00051F4882D8073803309F476C0C501612FA0
:103800006FC099249394F601E284F38404851585AE
:1038100083899489A589B689E816F9060A071B07E2
:1038200008F4B0CF882D8271823109F05DC09920F3
:1038300041F0C50161E00E94B8158C01009789F440
:1038400053C0D60115968C91823009F44DC0C60143
:103850000E941F1B882309F447C0F501128A06E362
:1038600015E080E2D8011D928A95E9F7D801FE01A2
:1038700031968BE001900D928150E1F7E091340593
:10388000F0913505309739F0B801625F7F4FC8017C
:103890004096199509C081E298E2F801918B808BDE
:1038A00080E098E097878687D80150968D919C910B
:1038B000519753969C938E93529759969C938E93BF
:1038C00058971E968D919C911F9757969C938E9317
:1038D00056970E94B71C882339F0C501F50162890B
:1038E000482D0E94C21801C080E02B960FB6F894B4
:1038F000DEBF0FBECDBFCF91DF911F910F91FF9023
:10390000EF90DF90CF90BF90AF909F908F907F907F
:103910006F9008950F931F93DF93CF93CDB7DEB7CA
:103920006D970FB6F894DEBF0FBECDBF9C01AB0103
:103930001C821B8286E392E09A8389831E828E0119
:103940000F5F1F4FC801B90122E00E94831B88232B
:1039500019F0C8010E94F6166D960FB6F894DEBFF6
:103960000FBECDBFCF91DF911F910F910895809130
:103970003807882399F140910E0250910F0260910F
:10398000100270911102809136079091370726E35B
:1039900035E00E94F112882319F1409139075091C6
:1039A0003A0760913B0770913C074115510561054D
:1039B000710591F0809136079091370726E335E045
:1039C0000E94F112882361F01092390710923A0791
:1039D00010923B0710923C071092380781E008953F
:1039E00080E00895EF92FF920F931F937B018C016B
:1039F0000E94B71C8823A9F0E6E3F5E0119287E066
:103A0000E633F807D9F7E0920E02F0920F02009326
:103A1000100210931102809138078160809338075B
:103A200081E01F910F91FF90EF900895DF92EF9248
:103A3000FF920F931F937B018C01D42E80910E0275
:103A400090910F02A0911002B09111028E159F0566
:103A5000A007B107C1F00E94B71C8823D9F080915C
:103A6000360790913707B801A70126E335E00E9499
:103A7000EB13882379F0E0920E02F0920F0200938C
:103A8000100210931102809138078D298093380716
:103A900081E001C080E01F910F91FF90EF90DF90D7
:103AA00008958F929F92AF92BF92CF92DF92EF9242
:103AB000FF920F931F93CF93DF936C01142F70939A
:103AC000370760933607442321F48824992454014E
:103AD00040C0453008F01CC160E070E080E090E03C
:103AE00040E00E94161D882309F412C1C12FD0E0C6
:103AF0002197FE0174E0EE0FFF1F7A95E1F7EA5C73
:103B0000FA4FE254FE4F8081EE5BF14090E08F77F8
:103B10009070892B09F0FCC0E653FE4F80819181A3
:103B2000A281B38184369105A105B10508F4F0C0E6
:103B300064E0CC0FDD1F6A95E1F7C450D94F88804F
:103B40009980AA80BB8081149104A104B10409F476
:103B5000DFC0C501B40140E00E94161D882309F4AE
:103B6000D7C080914105909142058050924009F064
:103B7000CFC020914605222309F4CAC08091440594
:103B800090914505892B09F4C3C080914305882392
:103B900009F4BEC0F601228B80914305848315860B
:103BA00061E070E007C04F5FF60145874150483043
:103BB00008F0AEC0F6014585848190E09B01042E9B
:103BC00002C0220F331F0A94E2F78217930759F7B6
:103BD00020914C0530914D052115310519F040E03B
:103BE00050E008C020915A0530915B0540915C057A
:103BF00050915D05F6012583368347835087E09019
:103C00004405F090450500E010E0E80CF91C0A1DA1
:103C10001B1DE38AF48A058B168B809147059091D2
:103C20004805918F808F6091460570E080E090E0BC
:103C30000E9462226E0D7F1D801F911FF601628F10
:103C4000738F848F958F209147053091480555E0FB
:103C5000220F331F5A95E1F721503E4F232F332770
:103C6000269540E050E0260F371F481F591F268732
:103C70003787408B518B8091490590914A05009779
:103C800019F0A0E0B0E008C080915605909157056A
:103C9000A0915805B091590585017401E21AF30A03
:103CA000040B150BA8019701280F391F4A1F5B1F32
:103CB000F601058404C056954795379527950A94D3
:103CC000D2F72187328743875487253FFFE03F079C
:103CD000F0E04F07F0E05F0710F48CE006C0255FCE
:103CE0003F4F4040504028F480E1F601878B81E04F
:103CF00010C08091620590916305A0916405B09118
:103D00006505F601828F938FA48FB58F80E2EECF89
:103D100080E0DF91CF911F910F91FF90EF90DF90A6
:103D2000CF90BF90AF909F908F9008954F925F92E9
:103D30006F927F928F929F92AF92BF92CF92DF92BB
:103D4000EF92FF920F931F93CF93DF93EC016A01E1
:103D50007B0128013901423051056105710508F4E4
:103D60006FC089859A85AB85BC850196A11DB11D63
:103D700084179507A607B70708F462C02B893C890A
:103D80004D895E898F89803129F499278F2D7E2D69
:103D90006D2D09C0C701B60117E0969587957795F7
:103DA00067951A95D1F74B015C01820E931EA41EF4
:103DB000B51E80910E0290910F02A0911002B09159
:103DC000110288169906AA06BB0639F0C501B4018E
:103DD00040E00E94161D882399F18F89803149F4B3
:103DE000F601F070EE0FFF1FEA5CFA4F518240823D
:103DF0000DC0F601EF77F070EE0FFF1FEE0FFF1F03
:103E0000EA5CFA4F40825182628273828091380765
:103E10008160809338078A89823080F08D819E810D
:103E2000AF81B885880E991EAA1EBB1E80923907E5
:103E300090923A07A0923B07B0923C0781E001C004
:103E400080E0DF91CF911F910F91FF90EF90DF9075
:103E5000CF90BF90AF909F908F907F906F905F902A
:103E60004F900895CF92DF92EF92FF920F931F939E
:103E7000CF93DF93EC017A018B01690189859A85E3
:103E8000AB85BC850196A11DB11D84179507A607BA
:103E9000B70708F450C02B893C894D895E898F890A
:103EA000803129F49927812F702F6F2D09C0C80107
:103EB000B701E7E09695879577956795EA95D1F7ED
:103EC000260F371F481F591F80910E0290910F0235
:103ED000A0911002B0911102281739074A075B0719
:103EE00039F0CA01B90140E00E94161D882319F17A
:103EF0008F89803159F4F701F070EE0FFF1FEA5CF3
:103F0000FA4F80819181A0E0B0E00EC0F701EF7719
:103F1000F070EE0FFF1FEE0FFF1FEA5CFA4F80817B
:103F20009181A281B381BF70F60180839183A283C6
:103F3000B38381E001C080E0DF91CF911F910F91A9
:103F4000FF90EF90DF90CF900895AF92BF92CF9205
:103F5000DF92EF92FF920F931F93DF93CF9300D0E6
:103F60000F92CDB7DEB76C017A018B0182E090E051
:103F7000A0E0B0E0F60180839183A283B3835E0169
:103F80000894A11CB11CC601B801A70195010E94AB
:103F9000321F882319F1C601B801A70100E010E023
:103FA00020E030E00E94961E8823C1F0E980FA806C
:103FB0000B811C81F6018789803129F088EF9FEF02
:103FC000AFEFBFE004C088EF9FEFA0E0B0E0E816DD
:103FD000F9060A071B07B8F281E001C080E00F90E4
:103FE0000F900F900F90CF91DF911F910F91FF9045
:103FF000EF90DF90CF90BF90AF9008954F925F9277
:104000006F927F928F929F92AF92BF92CF92DF92E8
:10401000EF92FF920F931F93DF93CF9300D00F92F5
:10402000CDB7DEB76C0149835A836B837C8339013A
:10403000EE24FF2487012E010894411C511C812C81
:10404000A2E09A2EA12CB12C49815A816B817C81EE
:10405000C60192010E94321F882351F1D501C4018B
:10406000F601058404C0880F991FAA1FBB1F0A947C
:10407000D2F7E80EF91E0A1F1B1F29813A814B81D6
:104080005C818789803129F088EF9FEFAFEFBFE037
:1040900004C088EF9FEFA0E0B0E0281739074A0777
:1040A0005B0790F2F301E082F1820283138381E0E7
:1040B0000F900F900F900F90CF91DF911F910F9164
:1040C000FF90EF90DF90CF90BF90AF909F908F9038
:1040D0007F906F905F904F9008952F923F924F92F4
:1040E0005F926F927F928F929F92AF92BF92CF9288
:1040F000DF92EF92FF920F931F93DF93CF93CDB791
:10410000DEB72F970FB6F894DEBF0FBECDBF1C01F0
:104110004A875B876C877D873F872E87D9010D9102
:104120001D912D913C91011511052105310549F095
:10413000480159010894811C911CA11CB11C1986CD
:1041400010C0FC0180809180A280B38019868A858E
:104150009B85AC85BD850197A105B10511F491E062
:104160009987D10119968D919D910D90BC91A02DAB
:104170000196A11DB11D8D839E83AF83B887750104
:1041800064014424552432018E010F5F1F4FF10159
:1041900081859285A385B485481659066A067B06F3
:1041A00008F090C08D819E81AF81B8858C159D05EA
:1041B000AE05BF0550F482E0882E912CA12CB12CC5
:1041C000B2E0CB2ED12CE12CF12CC101B701A6011C
:1041D00098010E94321F882309F474C089819A8152
:1041E000AB81BC81A70196012F5F3F4F4F4F5F4FBF
:1041F0000097A105B10519F049015A010DC0281910
:1042000039094A095B098A859B85AC85BD852817D4
:1042100039074A075B0759F00894411C511C611C7F
:10422000711C0894C11CD11CE11CF11CB0CFC10150
:10423000A601B7010FEF1FEF2FEF3FE00E94961E80
:10424000882399F43FC0260137010894410851089A
:1042500061087108C101B301A201970186010E94A2
:10426000961E882379F1730162018C149D04AE04BB
:10427000BF0448F3AE85BF854D915D916D917C91F2
:10428000411551056105710539F0C10195018401A0
:104290000E94961E8823B1F0EE85FF858082918270
:1042A000A282B382F985FF2359F00894811C911CE6
:1042B000A11CB11CD1018D929D92AD92BC9213971D
:1042C00081E001C080E02F960FB6F894DEBF0FBEEC
:1042D000CDBFCF91DF911F910F91FF90EF90DF90B5
:1042E000CF90BF90AF909F908F907F906F905F9096
:1042F0004F903F902F900895CF93DF93482F50E039
:10430000CA0188579E4FFC0134914E5B5E4FFA0103
:104310008491882369F190E0880F991FFC01EC508B
:10432000FF4FA591B491FC01E25FFE4FC591D4917E
:10433000662351F42FB7F8948C91932F909589238D
:104340008C93888189230BC0623061F42FB7F89475
:104350008C91932F909589238C938881832B8883CC
:104360002FBF06C09FB7F8948C91832B8C939FBF6F
:10437000DF91CF910895893009F449C08A30A0F4C3
:10438000843051F1853040F4823079F1833000F58A
:10439000813009F063C026C0873079F1883098F504
:1043A000863009F05BC025C08D3009F442C08E30E4
:1043B00028F48B30B1F18C30C0F52DC0803109F478
:1043C00042C0813109F445C08F3009F047C037C081
:1043D000809180008F7703C0809180008F7D8093D3
:1043E0008000089584B58F7702C084B58F7D84BD29
:1043F00008958091B0008F7703C08091B0008F7DC9
:104400008093B0000895809190008F7707C08091CD
:1044100090008F7D03C080919000877F80939000F3
:1044200008958091A0008F7707C08091A0008F7DB4
:1044300003C08091A000877F8093A00008958091A1
:1044400020018F7703C0809120018F7D8093200110
:10445000089580912001877F809320010895FF9225
:104460000F931F93F62E482F50E0CA0182539E4FA0
:10447000FC012491CA0188579E4FFC0114914E5BA8
:104480005E4FFA0104910023C9F0222319F0822F14
:104490000E94BB21E02FF0E0EE0FFF1FE25FFE4F16
:1044A000A591B4919FB7F894FF2021F48C911095B9
:1044B000812302C08C91812B8C939FBF1F910F9100
:1044C000FF900895629FD001739FF001829FE00DDD
:1044D000F11D649FE00DF11D929FF00D839FF00D83
:1044E000749FF00D659FF00D9927729FB00DE11D2F
:1044F000F91F639FB00DE11DF91FBD01CF0111240C
:104500000895A1E21A2EAA1BBB1BFD010DC0AA1F14
:10451000BB1FEE1FFF1FA217B307E407F50720F02C
:10452000A21BB30BE40BF50B661F771F881F991FA7
:104530001A9469F760957095809590959B01AC01F0
:10454000BD01CF010895EE0FFF1F0590F491E02DFE
:064550001994F894FFCF5E
:104556002F002F0021480008800041070000FFFFC0
:10456600FFFF000000001209970AA808D908B90839
:10457600020900000000200DFD0D380DA30DC10D30
:0A4586008E0D000000000E1B970AC6
:00000001FF
