:100000000C942A000C9434000C9434000C943400AA
:100010000C9434000C9434000C9434000C94340090
:100020000C9434000C9434000C9434000C94340080
:100030000C9434000C9434000C9434000C94340070
:100040000C9434000C9434000C9434000C94340060
:100050000C94340011241FBECFE5D4E0DEBFCDBF29
:100060000E9445000C9490030C940000823D910581
:100070001CF0623D71051CF48CBF63BD08958FEFC9
:100080008CBF83BDC09892980895CF93DF9300D022
:1000900000D0CDB7DEB783B7896783BF87B38B60E6
:1000A00087BB85B5896785BD81B3846881BBC098EE
:1000B00092983E9A329A379A11E00F2E22242A946F
:1000C000F3E03F2EF02D369A3699FECF24B12983E6
:1000D00085B1422F50E0582B87B1812787B9369AD6
:1000E0005A8349833699FECFE4B085B1F12CF82AC2
:1000F00087B1812787B929813A81213042E03407CD
:1001000008F08AC251E0E51652E0F50608F038C161
:100110002E153F0508F048C02901612C712CAFEF66
:10012000B0E0A30192010E945B034B015C019923A3
:1001300034F42FEF820E21E0921EA11CB11C072E79
:1001400079E0B594A794979487947A95D1F7702D18
:10015000C098929AC701A0E0B0E09C01AD012419BB
:10016000350946095709C401092C000CAA0BBB0B21
:10017000BC01CD016F5F7109810991090E941D03C6
:1001800020E032E040E050E02419350946095709E3
:100190000E942D03DA01C90181509F4FAF4FBF4F1D
:1001A000B4010E9436002FC22701612C712CAFEFE1
:1001B000B0E0A30192010E945B034B015C01992313
:1001C00034F43FEF830E31E0931EA11CB11C072EC7
:1001D00079E0B594A794979487947A95D1F7702D88
:1001E000C09A929A49815A81CA01A0E0B0E09C016C
:1001F000AD012419350946095709C401092C000C21
:10020000AA0BBB0BBC01CD016F5F7109810991097C
:100210000E941D0320E032E040E050E0241935093F
:10022000460957090E942D03DA01C90181509F4FE9
:10023000AF4FBF4FB4010E943600E5C151E0E51653
:1002400052E0F50608F03DC189819A818E0D9F1D0F
:100250008115944008F041C09701AFEFB0E00E94D3
:100260004C03862E972EA82EB92E072E79E0B59432
:10027000A794979487947A95D1F7702D2401092C2F
:10028000000C66087708C09A929A49815A81CA017F
:10029000A0E0B0E09C01AD013250410951096FEF7F
:1002A00070E080E090E064197509860997090E9462
:1002B0001D0391012E193F0940E050E032504109E1
:1002C00051090E942D03CA01B901640D751D861DD7
:1002D000971DC4010E9436004DC029813A81C90191
:1002E000A0E0B0E09C01AD01325041095109A1E00C
:1002F000BFEF0E9469032FEF31E040E050E00E9421
:100300002D0349015A018FEF880E911CA11CB11CCD
:10031000210129813A81421A530A612C712CC09A19
:100320009298C701A0E0B0E09C01AD012419350905
:1003300046095709C401092C000CAA0BBB0BBC01D0
:10034000CD016F5F7109810991090E941D0320E0B1
:1003500032E040E050E024193509460957090E946F
:100360002D03CA01B90161507F4F8F4F9F4FC401C8
:100370000E94360049815A814130524008F0A1C0A4
:10038000E11494E0F90608F09ECE21E0E21622E0A6
:10039000F20608F44AC189819A818E0D9F1D81154C
:1003A000944008F042C029813A81AFEFB0E00E944A
:1003B0004C03862E972EA82EB92E072E79E0B594E1
:1003C000A794979487947A95D1F7702D2401092CDE
:1003D000000C66087708C0989298C701A0E0B0E0CA
:1003E0009C01AD013250410951096FEF70E080E08E
:1003F00090E064197509860997090E941D0391010F
:1004000049815A81241B350B40E050E032504109AC
:1004100051090E942D03CA01B901640D751D861D85
:10042000971DC4010E94360000C1C701A0E0B0E0E2
:100430009C01AD01325041095109A1E0BFEF0E947A
:1004400069032FEF31E040E050E00E942D034901A5
:100450005A018FEF880E911CA11CB11C21014E186E
:100460005F08612C712CC098929829813A81C9014A
:10047000A0E0B0E09C01AD012419350946095709F7
:10048000C401092C000CAA0BBB0BBC01CD016F5F92
:100490007109810991090E941D0320E032E040E0CA
:1004A00050E024193509460957090E942D03CA0155
:1004B000B90161507F4F8F4F9F4FC4010E9436009A
:1004C000B4C089819A8192508115924008F0FBCD89
:1004D000E11444E0F40608F0F6CDE11452E0F5062C
:1004E00008F4F1CD89819A81E816F90608F443C031
:1004F0002701612C712C92E0591A61087108A1E062
:10050000BFEFA30192010E9469032FEF31E040E0A9
:1005100050E00E942D0349015A018FEF880E911C73
:10052000A11CB11C6401092C000CEE08FF08C09846
:10053000929829813A81C901A0E0B0E09C01AD0107
:100540003250410951096FEF70E080E090E06C1982
:100550007D098E099F090E941D03A30192010E943B
:100560002D03DA01C9018C0D9D1DAE1DBF1DB40107
:100570000E943600A8CD49815A81CA01A0E0B0E0AE
:100580009C01AD0132504109510929833A834B83C3
:100590005C83A1E0BFEF0E9469032FEF31E040E0F0
:1005A00050E00E942D0349015A018FEF880E911CE3
:1005B000A11CB11C2401092C000C66087708C09806
:1005C0009298C701A0E0B0E09C01AD013250410912
:1005D00051096FEF70E080E090E0641975098609B9
:1005E00097090E941D0329813A814B815C810E94F9
:1005F0002D03CA01B901640D751D861D971DC40127
:100600000E94360060CD89819A81815092408F3F4F
:10061000914008F419CEB4CE89819A8181509240DC
:100620008F3F914008F04DCF09CE89819A81925039
:100630008115924008F451CF46CDDB018F939F93F3
:100640000E945B03BF91AF91A29F800D911DA39F5C
:10065000900DB29F900D11240895052E97FB1EF466
:1006600000940E94440357FD07D00E946E0307FCCC
:1006700003D04EF40C944403509540953095219549
:100680003F4F4F4F5F4F08959095809570956195BE
:100690007F4F8F4F9F4F0895A29FB001B39FC0011E
:1006A000A39F700D811D1124911DB29F700D811D9E
:1006B0001124911D08950E944C03A59F900DB49F95
:1006C000900DA49F800D911D11240895B7FF0C94E7
:1006D0005B030E945B03821B930B0895A1E21A2E19
:1006E000AA1BBB1BFD010DC0AA1FBB1FEE1FFF1FD6
:1006F000A217B307E407F50720F0A21BB30BE40B26
:10070000F50B661F771F881F991F1A9469F760956C
:100710007095809590959B01AC01BD01CF01089526
:04072000F894FFCF7B
:00000001FF
