:100000000C942A000C9434000C9434000C943400AA
:100010000C9434000C9434000C9434000C94340090
:100020000C9434000C9434000C9434000C94340080
:100030000C9434000C9434000C9434000C94340070
:100040000C9434000C9434000C9434000C94340060
:100050000C94340011241FBECFE5D4E0DEBFCDBF29
:100060000E9436000C9445000C94000089E683BF82
:1000700085B5896685BD8FEF87BB8ABBD898C09848
:0E0080008CBF83BD8BBB88BBFBCFF894FFCF3A
:00000001FF
