:100000000C942A000C9434000C9434000C943400AA
:100010000C9434000C9434000C9434000C94340090
:100020000C9434000C9434000C9434000C94340080
:100030000C9434000C9434000C9434000C94340070
:100040000C9434000C9434000C9434000C94340060
:100050000C94340011241FBECFE5D4E0DEBFCDBF29
:100060000E9436000C9457000C94000089E683BF70
:100070008FEF87BB8ABB84BB81BB8BBB88BB85BB37
:1000800082BB80E08CBFEFE9FFE03197F1F700C061
:1000900000008F5F8F3FB1F78CBFEFE9FFE0319732
:1000A000F1F700C0000081508130B1F7EACFF89439
:0200B000FFCF80
:00000001FF
