:100000000C942A000C943F000C943F000C943F0089
:100010000C943F000C943F000C943F000C943F0064
:100020000C943F000C943F000C943F000C943F0054
:100030000C943F000C943F000C948A000C943F00F9
:100040000C943F000C943F000C943F000C943F0034
:100050000C943F0011241FBECFE5D4E0DEBFCDBF1E
:1000600010E0A0E6B0E0ECE9F2E002C005900D92ED
:10007000A236B107D9F70E94D1000C944C010C9420
:1000800000005F9BFECF8CB108955D9BFECF8CB9C5
:1000900008954F925F926F927F92AF92BF92CF92EC
:1000A000DF92EF92FF920F931F93CF93DF93CDB721
:1000B000DEB729013A019B01AC0124193509460933
:1000C000570989899A89AB89BC89BC01CD016A1914
:1000D0007B098C099D090E94E100A8019701241960
:1000E0003509460957090E94F100CA01B9016A0D94
:1000F0007B1D8C1D9D1DDF91CF911F910F91FF9056
:10010000EF90DF90CF90BF90AF907F906F905F9017
:100110004F9008951F920F920FB60F9211242F93B4
:100120003F934F935F936F937F938F939F93AF937F
:10013000BF93CF93EF93FF93C4B1809160009091F0
:100140006100019741F481E10E9445001092610035
:100150001092600009C081E20E94450081E090E0B9
:10016000909361008093600097B181E0892787B9FF
:100170008C2F0E94450085B10E944500369AFF9160
:10018000EF91CF91BF91AF919F918F917F916F919F
:100190005F914F913F912F910F900FBE0F901F9045
:1001A000189582E08BB910BC8FEF89B988E08AB9C5
:1001B00086E880BD3E9A329A339A7894379A369A76
:1001C000FFCFDB018F939F930E941001BF91AF91EE
:1001D000A29F800D911DA39F900DB29F900D1124A1
:1001E0000895052E97FB1EF400940E94080157FD08
:1001F00007D00E941B0107FC03D04EF40C940801A9
:1002000050954095309521953F4F4F4F5F4F089542
:1002100090958095709561957F4F8F4F9F4F089572
:100220000E943D01A59F900DB49F900DA49F800D4D
:10023000911D11240895A1E21A2EAA1BBB1BFD01DA
:100240000DC0AA1FBB1FEE1FFF1FA217B307E407B5
:10025000F50720F0A21BB30BE40BF50B661F771F0D
:10026000881F991F1A9469F76095709580959095ED
:100270009B01AC01BD01CF010895A29FB001B39FC6
:10028000C001A39F700D811D1124911DB29F700D9F
:0C029000811D1124911D0895F894FFCFEA
:02029C0001005F
:00000001FF
