:100000000C942A000C9434000C9434000C943400AA
:100010000C9434000C9434000C9434000C94340090
:100020000C9434000C9434000C9434000C94340080
:100030000C9434000C9434000C9434000C94340070
:100040000C9434000C9434000C9434000C94340060
:100050000C94340011241FBECFE5D4E0DEBFCDBF29
:100060000E9424020C9402060C9400005F9BFECFB9
:100070008CB190E008955D9BFECF8CB908954F92AE
:100080005F926F927F92AF92BF92CF92DF92EF9288
:10009000FF920F931F93CF93DF93CDB7DEB7290164
:1000A0003A019B01AC012419350946095709898990
:1000B0009A89AB89BC89BC01CD016A197B098C097D
:1000C0009D090E949705A801970124193509460941
:1000D00057090E94A705CA01B9016A0D7B1D8C1D35
:1000E0009D1DDF91CF911F910F91FF90EF90DF90B9
:1000F000CF90BF90AF907F906F905F904F9008959A
:100100004F925F926F927F92AF92BF92CF92DF92A7
:10011000EF92FF920F931F93CF93DF93CDB7DEB78C
:1001200028970FB6F894DEBF0FBECDBF29013A0164
:10013000ED82FE820F8318870E942C0369837A83E5
:100140008B839C83A6019501698D7A8D8B8D9C8D07
:100150000E942C039B01AC0169817A818B819C8177
:100160000E94CF0469837A838B839C83A3019201CD
:10017000C801B7010E942C039B01AC0169817A81FF
:100180008B819C810E949903A60195010E942D03F9
:1001900028960FB6F894DEBF0FBECDBFDF91CF918A
:1001A0001F910F91FF90EF90DF90CF90BF90AF9095
:1001B0007F906F905F904F9008954F925F926F92F3
:1001C0007F928F929F92AF92BF92EF92FF920F9386
:1001D0001F932B013C0149015A01CA01B9010E9438
:1001E000CF0420E030E040E05FE30E94CF049B01B9
:1001F000AC0160E070E080E89FE30E942C030E9465
:100200004205A30192010E94CF04F801608371832B
:1002100082839383A3019201C301B2010E94CF04A0
:1002200020E030E040E05FE30E94CF049B01AC019E
:1002300060E070E080E89FE30E942C030E9442058A
:100240009B01AC01C501B4010E94CF04F70160839A
:100250007183828393831F910F91FF90EF90BF90E2
:10026000AF909F908F907F906F905F904F90089588
:100270004F925F926F927F928F929F92AF92BF92B6
:10028000CF92DF92EF92FF920F931F93CF93DF9362
:10029000CDB7DEB72E970FB6F894DEBF0FBECDBF39
:1002A0004B015C0129013A01FE86ED869B01AC0100
:1002B0000E94CF046B017C01A3019201C301B20132
:1002C0000E94CF0469837A838B839C8320E030E093
:1002D00040E050E4C701B6010E942D0329813A8114
:1002E0004B815C810E942C036D837E838F83988772
:1002F000A701960160E070E080E090E40E942C038A
:1003000029813A814B815C810E942D036B017C0124
:1003100023EF34E045E350E4C501B4010E94CF046B
:100320004B015C0123EF34E045E350E4C301B2012B
:100330000E94CF0469837A838B839C83A5019401F7
:100340006D817E818F8198850E942D030E944205D8
:1003500069877A878B879C87A50194016D817E814F
:100360008F8198850E942C030E9442052B013C013D
:1003700020E030E040E05FE369857A858B859C85ED
:100380000E94CF044B015C0120E030E040E05FE3DD
:10039000C301B2010E94CF049B01AC01C501B401AD
:1003A0000E942C03F80160837183828393832981E7
:1003B0003A814B815C81C701B6010E942D030E94E6
:1003C00042054B015C0129813A814B815C81C70167
:1003D000B6010E942C030E9442052B013C0120E043
:1003E00030E040E05FE3C501B4010E94CF046B013F
:1003F0007C0120E030E040E05FE3C301B2010E94F5
:10040000CF049B01AC01C701B6010E942C03ED850E
:10041000FE8560837183828393832E960FB6F89452
:10042000DEBF0FBECDBFDF91CF911F910F91FF9027
:10043000EF90DF90CF90BF90AF909F908F907F9084
:100440006F905F904F900895CF93DF93CDB7DEB755
:100450002A970FB6F894DEBF0FBECDBF83B789666B
:1004600083BF87B38B6087BB85B5896685BD81B344
:10047000846881BBC098929882E08BB910BC8FEFE2
:1004800089B980E18AB986E880BD0E94360041972B
:10049000E1F70E9436003C010E943600582E0E946F
:1004A00036005C010E943600382E212CA228B32889
:1004B00060E072E06A197B0980E090E00E944104EC
:1004C00020E030E040E054E40E942D039B01AC01A9
:1004D0000E942D0320E030E040E85AE30E94CF0460
:1004E00020E030E040E85FE30E942C034B015C0118
:1004F0005A86198669857A8566297729725080E03F
:1005000090E00E94410420E030E040E054E40E948A
:100510002D039B01AC010E942D0320E030E040E858
:100520005AE30E94CF0420E030E040E85FE30E94FD
:100530002C039E012F5F3F4F79018E010B5F1F4FF0
:10054000A50194010E94DD00CD80DE80EF80F8845B
:1005500024EF3DEF44E35FE369817A818B819C81E5
:100560000E94CF044B015C01C701B601905824EFF3
:100570003DEF44E35FE30E94CF04A50194010E9494
:100580002D032B013C0124EF3DEF44E35FE3C70162
:10059000B6010E94CF04A50194010E942D039E0183
:1005A0002F5F3F4F7901A30192010E94380121E1A1
:1005B00034EC4DE75FE36D817E818F8198850E94E9
:1005C0002D0320E030E04FEF53E40E94CF0421E1FF
:1005D00034EC4DEF5FE30E94990320E030E04FE7F9
:1005E00053E40E942C030E940B04962EA62EB72ED5
:1005F00021E134EC4DE75FE369817A818B819C8155
:100600000E942D0320E030E04FEF53E40E94CF041E
:1006100021E134EC4DEF5FE30E94990320E030E0EC
:100620004FE753E40E942C030E940B04CB011A14E1
:100630001B041CF49CBEC09A03C091949CBEC0983D
:10064000181619061CF463BD929A1FCF619563BDFD
:1006500082B3887F82BB19CF5058BB27AA270E943C
:1006600044030C9495040E94870438F00E948E0481
:1006700020F039F49F3F19F426F40C9484040EF40E
:10068000E095E7FB0C947E04E92F0E94A60458F342
:10069000BA17620773078407950720F079F4A6F567
:1006A0000C94C8040EF4E0950B2EBA2FA02D0B016C
:1006B000B90190010C01CA01A0011124FF27591BA7
:1006C00099F0593F50F4503E68F11A16F040A22FAD
:1006D000232F342F4427585FF3CF4695379527951E
:1006E000A795F0405395C9F77EF41F16BA0B620B1D
:1006F000730B840BBAF09150A1F0FF0FBB1F661F64
:10070000771F881FC2F70EC0BA0F621F731F841FA6
:1007100048F4879577956795B795F7959E3F08F0CC
:10072000B0CF9395880F08F09927EE0F979587958E
:1007300008950E94AD030C9495040E948E0458F015
:100740000E94870440F029F45F3F29F00C947E0456
:1007500051110C94C9040C9484040E94A60468F3FB
:100760009923B1F3552391F3951B550BBB27AA276A
:1007700062177307840738F09F5F5F4F220F331FA4
:10078000441FAA1FA9F335D00E2E3AF0E0E832D06C
:1007900091505040E695001CCAF72BD0FE2F29D06F
:1007A000660F771F881FBB1F261737074807AB0741
:1007B000B0E809F0BB0B802DBF01FF2793585F4FB6
:1007C0003AF09E3F510578F00C947E040C94C904D5
:1007D0005F3FE4F3983ED4F3869577956795B79598
:1007E000F7959F5FC9F7880F911D9695879597F9A3
:1007F0000895E1E0660F771F881FBB1F621773071C
:100800008407BA0720F0621B730B840BBA0BEE1F30
:1008100088F7E09508950E9412046894B1110C9431
:10082000C90408950E94AE0488F09F5798F0B92F2C
:100830009927B751B0F0E1F0660F771F881F991F15
:100840001AF0BA95C9F714C0B13091F00E94C804EB
:10085000B1E008950C94C804672F782F8827B85FFB
:1008600039F0B93FCCF3869577956795B395D9F76D
:100870003EF490958095709561957F4F8F4F9F4F77
:100880000895E89409C097FB3EF490958095709583
:1008900061957F4F8F4F9F4F9923A9F0F92F96E9CC
:1008A000BB279395F695879577956795B795F11141
:1008B000F8CFFAF4BB0F11F460FF1BC06F5F7F4FDE
:1008C0008F4F9F4F16C0882311F096E911C07723F0
:1008D00021F09EE8872F762F05C0662371F096E8F9
:1008E000862F70E060E02AF09A95660F771F881FC8
:1008F000DAF7880F9695879597F9089597F99F6786
:1009000080E870E060E008959FEF80EC0895002497
:100910000A941616170618060906089500240A9464
:1009200012161306140605060895092E0394000CEA
:1009300011F4882352F0BB0F40F4BF2B11F460FF79
:1009400004C06F5F7F4F8F4F9F4F089557FD9058A2
:10095000440F551F59F05F3F71F04795880F97FB83
:10096000991F61F09F3F79F087950895121613063D
:100970001406551FF2CF4695F1DF08C0161617066C
:100980001806991FF1CF86957105610508940895A1
:10099000E894BB2766277727CB0197F908950E9433
:1009A000E2040C9495040E94870438F00E948E049F
:1009B00020F0952311F00C947E040C9484041124EF
:1009C0000C94C9040E94A60470F3959FC1F3950F7F
:1009D00050E0551F629FF001729FBB27F00DB11DC3
:1009E000639FAA27F00DB11DAA1F649F6627B00D53
:1009F000A11D661F829F2227B00DA11D621F739F3C
:100A0000B00DA11D621F839FA00D611D221F749F49
:100A10003327A00D611D231F849F600D211D822F90
:100A2000762F6A2F11249F5750409AF0F1F08823B7
:100A30004AF0EE0FFF1FBB1F661F771F881F9150E4
:100A40005040A9F79E3F510580F00C947E040C9411
:100A5000C9045F3FE4F3983ED4F386957795679594
:100A6000B795F795E7959F5FC1F7FE2B880F911D0E
:100A70009695879597F9089519F416F40C948404C3
:100A80000C9482050E94AE04B8F39923C9F3B6F31F
:100A90009F57550B87FF0E9490050024A0E640EA6F
:100AA000900180585695979528F4805C660F771FC3
:100AB000881F20F026173707480730F4621B730B96
:100AC000840B202931294A2BA695179407942025B9
:100AD00031254A2758F7660F771F881F20F0261701
:100AE0003707480730F4620B730B840B200D311D60
:100AF000411DA09581F7B901842F9158880F9695D3
:100B0000879508959F3F31F0915020F48795779510
:100B10006795B795880F911D9695879597F90895D4
:100B200091505040660F771F881FD2F70895DB0160
:100B30008F939F930E94C605BF91AF91A29F800D96
:100B4000911DA39F900DB29F900D11240895052E25
:100B500097FB1EF400940E94BE0557FD07D00E942B
:100B6000D10507FC03D04EF40C94BE05509540957A
:100B7000309521953F4F4F4F5F4F08959095809549
:100B8000709561957F4F8F4F9F4F08950E94F30599
:100B9000A59F900DB49F900DA49F800D911D1124D1
:100BA0000895A1E21A2EAA1BBB1BFD010DC0AA1FAE
:100BB000BB1FEE1FFF1FA217B307E407F50720F0C6
:100BC000A21BB30BE40BF50B661F771F881F991F41
:100BD0001A9469F760957095809590959B01AC018A
:100BE000BD01CF010895A29FB001B39FC001A39F93
:100BF000700D811D1124911DB29F700D811D112456
:080C0000911D0895F894FFCF47
:00000001FF
