:100000000C942A000C9434000C9434000C943400AA
:100010000C9434000C9434000C9434000C94340090
:100020000C9434000C9434000C9434000C94340080
:100030000C9434000C9434000C9434000C94340070
:100040000C9434000C9434000C9434000C94340060
:100050000C94340011241FBECFE5D4E0DEBFCDBF29
:100060000E94E3010C9488060C9400005F9BFECF75
:100070008CB190E008955D9BFECF8CB908954F92AE
:100080005F926F927F92AF92BF92CF92DF92EF9288
:10009000FF920F931F93CF93DF93CDB7DEB72897CF
:1000A0000FB6F894DEBF0FBECDBF29013A01ED8235
:1000B000FE820F8318870E94EF0369837A838B8304
:1000C0009C83A6019501698D7A8D8B8D9C8D0E94F4
:1000D000EF039B01AC0169817A818B819C810E9435
:1000E000C00569837A838B839C83A3019201C80135
:1000F000B7010E94EF039B01AC0169817A818B817A
:100100009C810E946104A60195010E94F00328963B
:100110000FB6F894DEBF0FBECDBFDF91CF911F9118
:100120000F91FF90EF90DF90CF90BF90AF907F90B6
:100130006F905F904F9008954F925F926F927F9271
:100140008F929F92AF92BF92EF92FF920F931F9365
:100150002B013C0149015A01CA01B9010E94C005A5
:1001600020E030E040E05FE30E94C0059B01AC016D
:1001700060E070E080E89FE30E94EF030E94330696
:10018000A30192010E94C005F801608371838283FC
:100190009383A3019201C301B2010E94C00520E034
:1001A00030E040E05FE30E94C0059B01AC0160E0ED
:1001B00070E080E89FE30E94EF030E9433069B01FA
:1001C000AC01C501B4010E94C005F70160837183D1
:1001D000828393831F910F91FF90EF90BF90AF9018
:1001E0009F908F907F906F905F904F9008954F9267
:1001F0005F926F927F928F929F92AF92BF92CF92B7
:10020000DF92EF92FF920F931F93CF93DF93CDB7BF
:10021000DEB72E970FB6F894DEBF0FBECDBF4B01F1
:100220005C0129013A01FE86ED869B01AC010E942A
:10023000C0056B017C01A3019201C301B2010E94C0
:10024000C00569837A838B839C8320E030E040E0A3
:1002500050E4C701B6010E94F00329813A814B8125
:100260005C810E94EF036D837E838F839887A70153
:10027000960160E070E080E090E40E94EF03298145
:100280003A814B815C810E94F0036B017C0123EF7A
:1002900034E045E350E4C501B4010E94C0054B01C0
:1002A0005C0123EF34E045E350E4C301B2010E9456
:1002B000C00569837A838B839C83A50194016D813A
:1002C0007E818F8198850E94F0030E9433066987A2
:1002D0007A878B879C87A50194016D817E818F81B0
:1002E00098850E94EF030E9433062B013C0120E019
:1002F00030E040E05FE369857A858B859C850E94CC
:10030000C0054B015C0120E030E040E05FE3C30149
:10031000B2010E94C0059B01AC01C501B4010E945D
:10032000EF03F801608371838283938329813A818B
:100330004B815C81C701B6010E94F0030E94330625
:100340004B015C0129813A814B815C81C701B60177
:100350000E94EF030E9433062B013C0120E030E0B5
:1003600040E05FE3C501B4010E94C0056B017C0160
:1003700020E030E040E05FE3C301B2010E94C0052D
:100380009B01AC01C701B6010E94EF03ED85FE851C
:1003900060837183828393832E960FB6F894DEBFB9
:1003A0000FBECDBFDF91CF911F910F91FF90EF90C6
:1003B000DF90CF90BF90AF909F908F907F906F9085
:1003C0005F904F900895CF93DF93CDB7DEB72A9714
:1003D0000FB6F894DEBF0FBECDBF83B7896683BF6B
:1003E00087B38B6087BB85B5896685BD81B380691E
:1003F00081BBD09AC098D89882E08BB910BC8FEF9F
:1004000089B980E18AB986E880BD0E9436004197AB
:1004100009F048C00E9436007C010E943600D82EA8
:100420000E9436008197F1F50E9436003C010E943F
:100430003600582E3D2C212CB1016E297F29072E24
:10044000000C880B990B0E940B0520E030E040E087
:1004500054E40E94EF036B017C015A86198669857A
:100460007A8566297729072E000C880B990B0E9444
:100470000B059B01AC0160E070E080E094E40E9419
:10048000EF032B013C01A70196010E9461044B017F
:100490005C012DEC3CEC4CE451E40E94BB0587FF71
:1004A00006C012C01CBE13BCD898C098AECF2DECAD
:1004B0003CEC4CE451ECC501B4010E945C041816FC
:1004C0001CF0C12CD12C7601A7019601C301B20109
:1004D0000E9461044B015C0120E030E048EC5EE3E7
:1004E0000E945C0418166CF020E030E048EC5EEBF3
:1004F000C501B4010E94BB0587FD03C0412C512CEE
:10050000320120E030E040E054E4C301B2010E9437
:10051000F0039B01AC010E94F00320E030E040E8D2
:100520005AE30E94C00520E030E040E85FE30E940B
:10053000EF032B013C0120E030E040E054E4C70130
:10054000B6010E94F0039B01AC010E94F00320E081
:1005500030E040E85AE30E94C00520E030E040E887
:100560005FE30E94EF039E012F5F3F4F79018E01F1
:100570000B5F1F4FA30192010E949C008D809E8003
:10058000AF80B88424EF3DEF44E35FE369817A8173
:100590008B819C810E94C0056B017C01C501B40167
:1005A000905824EF3DEF44E35FE30E94C005A701AC
:1005B00096010E94F0032B013C0124EF3DEF44E340
:1005C0005FE3C501B4010E94C005A70196010E9426
:1005D000F0039E012F5F3F4F7901A30192010E941A
:1005E000F70021E134EC4DE75FE36D817E818F817F
:1005F00098850E94F00320E030E04FEF53E40E9422
:10060000C00521E134EC4DEF5FE30E94610420E07E
:1006100030E04FE753E40E94EF032B013C0121E15E
:1006200034EC4DE75FE369817A818B819C810E9484
:10063000F00320E030E04FEF53E40E94C00521E1D9
:1006400034EC4DEF5FE30E94610420E030E04FE7BF
:1006500053E40E94EF036B017C0120E030E04CE5A5
:1006600053E4C301B2010E94BB0520E030E04CE539
:1006700053E418169CF1C701B6010E94BB05181679
:100680000CF483C020E030E040EA51E4C301B20141
:100690000E945C0487FF0AC020E030E040EA51EC91
:1006A000C301B2010E94BB051816B4F120E030E08E
:1006B00040EA51E4C701B6010E945C0487FF1CC0F8
:1006C00020E030E040EA51ECC701B6010E94BB05D2
:1006D000181694F4C12CD12C76010EC0C701B601B6
:1006E0000E94BB05412C512C2FE7622E23E4722E71
:1006F000181644F67301620120E030E0A901C3013D
:10070000B2010E94BB0518160CF5C301B2010E948C
:10071000D3046CBFC09A21C020E030E040EA51E42D
:10072000C701B6010E945C0487FF51C020E030E0A1
:1007300040EA51ECC701B6010E94BB0518160CF047
:100740004AC0C12CD12C760126013701C301B20168
:100750000E94D30461956CBFC09820E030E0A901ED
:10076000C701B6010E94BB0518163CF4C701B601CB
:100770000E94D30463BDD89A48CEC701B6010E9437
:10078000D304619563BDD89840CE20E030E040EAC4
:1007900051E4C301B2010E945C0487FD07C0C12C73
:1007A000D12C3FE7E32E33E4F32EA6CF20E030E058
:1007B00040EA51ECC301B2010E94BB05C12CD12C0F
:1007C0009FE7E92E93E4F92E18160CF06FCF412C19
:1007D000512C3201BBCF412C512C32018DCF5058BE
:1007E000BB27AA270E9407040C9481050E94730569
:1007F00038F00E947A0520F039F49F3F19F426F46E
:100800000C9470050EF4E095E7FB0C946A05E92F53
:100810000E94920558F3BA17620773078407950779
:1008200020F079F4A6F50C94B4050EF4E0950B2EA7
:10083000BA2FA02D0B01B90190010C01CA01A00132
:100840001124FF27591B99F0593F50F4503E68F18D
:100850001A16F040A22F232F342F4427585FF3CFCE
:10086000469537952795A795F0405395C9F77EF49F
:100870001F16BA0B620B730B840BBAF09150A1F0E8
:10088000FF0FBB1F661F771F881FC2F70EC0BA0F6E
:10089000621F731F841F48F4879577956795B795F6
:1008A000F7959E3F08F0B0CF9395880F08F09927F1
:1008B000EE0F9795879508950E94460508F481E00C
:1008C00008950E9475040C9481050E947A0558F0E1
:1008D0000E94730540F029F45F3F29F00C946A05EB
:1008E00051110C94B5050C9470050E94920568F3A3
:1008F0009923B1F3552391F3951B550BBB27AA27D9
:1009000062177307840738F09F5F5F4F220F331F12
:10091000441FAA1FA9F335D00E2E3AF0E0E832D0DA
:1009200091505040E695001CCAF72BD0FE2F29D0DD
:10093000660F771F881FBB1F261737074807AB07AF
:10094000B0E809F0BB0B802DBF01FF2793585F4F24
:100950003AF09E3F510578F00C946A050C94B50569
:100960005F3FE4F3983ED4F3869577956795B79506
:10097000F7959F5FC9F7880F911D9695879597F911
:100980000895E1E0660F771F881FBB1F621773078A
:100990008407BA0720F0621B730B840BBA0BEE1F9F
:1009A00088F7E09508950E94DA046894B1110C94D8
:1009B000B50508950E949A0588F09F5798F0B92FC1
:1009C0009927B751B0F0E1F0660F771F881F991F84
:1009D0001AF0BA95C9F714C0B13091F00E94B4056D
:1009E000B1E008950C94B405672F782F8827B85F7D
:1009F00039F0B93FCCF3869577956795B395D9F7DC
:100A00003EF490958095709561957F4F8F4F9F4FE5
:100A10000895E89409C097FB3EF4909580957095F1
:100A200061957F4F8F4F9F4F9923A9F0F92F96E93A
:100A3000BB279395F695879577956795B795F111AF
:100A4000F8CFFAF4BB0F11F460FF1BC06F5F7F4F4C
:100A50008F4F9F4F16C0882311F096E911C077235E
:100A600021F09EE8872F762F05C0662371F096E867
:100A7000862F70E060E02AF09A95660F771F881F36
:100A8000DAF7880F9695879597F90895990F0008DA
:100A9000550FAA0BE0E8FEEF16161706E807F90750
:100AA000C0F012161306E407F50798F0621B730BEB
:100AB000840B950B39F40A2661F0232B242B252B6C
:100AC00021F408950A2609F4A140A6958FEF811D0F
:100AD000811D089597F99F6780E870E060E00895B0
:100AE0009FEF80EC089500240A9416161706180646
:100AF0000906089500240A94121613061406050622
:100B00000895092E0394000C11F4882352F0BB0FB2
:100B100040F4BF2B11F460FF04C06F5F7F4F8F4F15
:100B20009F4F089557FD9058440F551F59F05F3F50
:100B300071F04795880F97FB991F61F09F3F79F0FF
:100B400087950895121613061406551FF2CF469581
:100B5000F1DF08C0161617061806991FF1CF869503
:100B60007105610508940895E894BB2766277727E7
:100B7000CB0197F908950E94460508F48FEF089578
:100B80000E94D3050C9481050E94730538F00E94E1
:100B90007A0520F0952311F00C946A050C947005E9
:100BA00011240C94B5050E94920570F3959FC1F332
:100BB000950F50E0551F629FF001729FBB27F00D0B
:100BC000B11D639FAA27F00DB11DAA1F649F662760
:100BD000B00DA11D661F829F2227B00DA11D621FAF
:100BE000739FB00DA11D621F839FA00D611D221F69
:100BF000749F3327A00D611D231F849F600D211D4D
:100C0000822F762F6A2F11249F5750409AF0F1F0CF
:100C100088234AF0EE0FFF1FBB1F661F771F881F38
:100C200091505040A9F79E3F510580F00C946A0501
:100C30000C94B5055F3FE4F3983ED4F38695779521
:100C40006795B795F795E7959F5FC1F7FE2B880FDE
:100C5000911D9695879597F9089519F416F40C94BB
:100C600070050C9473060E949A05B8F39923C9F392
:100C7000B6F39F57550B87FF0E9481060024A0E61C
:100C800040EA900180585695979528F4805C660F4D
:100C9000771F881F20F026173707480730F4621B9C
:100CA000730B840B202931294A2BA695179407949E
:100CB000202531254A2758F7660F771F881F20F017
:100CC00026173707480730F4620B730B840B200D8F
:100CD000311D411DA09581F7B901842F9158880FCE
:100CE0009695879508959F3F31F0915020F4879510
:100CF00077956795B795880F911D9695879597F984
:100D0000089591505040660F771F881FD2F70895BD
:040D1000F894FFCF85
:00000001FF
