:100000000C942A000C9434000C9434000C943400AA
:100010000C9434000C9434000C9434000C94340090
:100020000C9434000C9434000C9434000C94340080
:100030000C9434000C9434000C9434000C94340070
:100040000C9434000C9434000C9434000C94340060
:100050000C94340011241FBECFE5D4E0DEBFCDBF29
:100060000E94E3010C94A1050C9400005F9BFECF5D
:100070008CB190E008955D9BFECF8CB908954F92AE
:100080005F926F927F92AF92BF92CF92DF92EF9288
:10009000FF920F931F93CF93DF93CDB7DEB72897CF
:1000A0000FB6F894DEBF0FBECDBF29013A01ED8235
:1000B000FE820F8318870E940D0369837A838B83E6
:1000C0009C83A6019501698D7A8D8B8D9C8D0E94F4
:1000D0000D039B01AC0169817A818B819C810E9417
:1000E000B50469837A838B839C83A3019201C80141
:1000F000B7010E940D039B01AC0169817A818B815C
:100100009C810E947A03A60195010E940E03289605
:100110000FB6F894DEBF0FBECDBFDF91CF911F9118
:100120000F91FF90EF90DF90CF90BF90AF907F90B6
:100130006F905F904F9008954F925F926F927F9271
:100140008F929F92AF92BF92EF92FF920F931F9365
:100150002B013C0149015A01CA01B9010E94B504B1
:1001600020E030E040E05FE30E94B5049B01AC0179
:1001700060E070E080E89FE30E940D030E94280584
:10018000A30192010E94B504F80160837183828308
:100190009383A3019201C301B2010E94B50420E040
:1001A00030E040E05FE30E94B5049B01AC0160E0F9
:1001B00070E080E89FE30E940D030E9428059B01E8
:1001C000AC01C501B4010E94B504F70160837183DD
:1001D000828393831F910F91FF90EF90BF90AF9018
:1001E0009F908F907F906F905F904F9008954F9267
:1001F0005F926F927F928F929F92AF92BF92CF92B7
:10020000DF92EF92FF920F931F93CF93DF93CDB7BF
:10021000DEB72E970FB6F894DEBF0FBECDBF4B01F1
:100220005C0129013A01FE86ED869B01AC010E942A
:10023000B5046B017C01A3019201C301B2010E94CC
:10024000B50469837A838B839C8320E030E040E0AF
:1002500050E4C701B6010E940E0329813A814B8107
:100260005C810E940D036D837E838F839887A70135
:10027000960160E070E080E090E40E940D03298127
:100280003A814B815C810E940E036B017C0123EF5C
:1002900034E045E350E4C501B4010E94B5044B01CC
:1002A0005C0123EF34E045E350E4C301B2010E9456
:1002B000B50469837A838B839C83A50194016D8146
:1002C0007E818F8198850E940E030E942805698790
:1002D0007A878B879C87A50194016D817E818F81B0
:1002E00098850E940D030E9428052B013C0120E007
:1002F00030E040E05FE369857A858B859C850E94CC
:10030000B5044B015C0120E030E040E05FE3C30155
:10031000B2010E94B5049B01AC01C501B4010E9469
:100320000D03F801608371838283938329813A816D
:100330004B815C81C701B6010E940E030E94280513
:100340004B015C0129813A814B815C81C701B60177
:100350000E940D030E9428052B013C0120E030E0A3
:1003600040E05FE3C501B4010E94B5046B017C016C
:1003700020E030E040E05FE3C301B2010E94B50439
:100380009B01AC01C701B6010E940D03ED85FE85FE
:1003900060837183828393832E960FB6F894DEBFB9
:1003A0000FBECDBFDF91CF911F910F91FF90EF90C6
:1003B000DF90CF90BF90AF909F908F907F906F9085
:1003C0005F904F900895CF93DF93CDB7DEB72A9714
:1003D0000FB6F894DEBF0FBECDBF83B7896683BF6B
:1003E00087B38B6087BB85B5896685BD81B384681B
:1003F00081BBC098929882E08BB910BC8FEF89B90D
:1004000080E18AB986E880BD0E9436004197E1F715
:100410000E9436003C010E943600382E212C6228B2
:1004200073280E9436005C010E9436008A87198674
:1004300029853A85A22AB32A60E072E06A197B090D
:10044000072E000C880B990B0E94240420E030E05A
:1004500040E054E40E940E039B01AC010E940E0395
:1004600020E030E040E85AE30E94B50420E030E0AC
:1004700040E85FE30E940D034B015C01B301725041
:10048000072E000C880B990B0E94240420E030E01A
:1004900040E054E40E940E039B01AC010E940E0355
:1004A00020E030E040E85AE30E94B50420E030E06C
:1004B00040E85FE30E940D039E012F5F3F4F7901EB
:1004C0008E010B5F1F4FA50194010E949C00CD80FF
:1004D000DE80EF80F88424EF3DEF44E35FE3698141
:1004E0007A818B819C810E94B5044B015C01C7011C
:1004F000B601905824EF3DEF44E35FE30E94B5045A
:10050000A50194010E940E032B013C0124EF3DEF55
:1005100044E35FE3C701B6010E94B504A50194015D
:100520000E940E039E012F5F3F4F7901A3019201AC
:100530000E94F70021E134EC4DE75FE36D817E819D
:100540008F8198850E940E0320E030E04FEF53E446
:100550000E94B50421E134EC4DEF5FE30E947A0381
:1005600020E030E04FE753E40E940D032B013C01F3
:1005700021E134EC4DE75FE369817A818B819C81D5
:100580000E940E0320E030E04FEF53E40E94B504D8
:1005900021E134EC4DEF5FE30E947A0320E030E08C
:1005A0004FE753E40E940D0320E030E048EC52E4B2
:1005B0000E940E034B015C0120E030E0A901C30161
:1005C000B2010E94B00418163CF4C301B2010E94AB
:1005D000EC036CBFC09A07C0C301B2010E94EC03D8
:1005E00061956CBFC09820E030E0A901C501B4015D
:1005F0000E94B00418163CF4C501B4010E94EC033B
:1006000063BD929A01CFC501B4010E94EC036195CC
:1006100063BD82B3887F82BBF7CE5058BB27AA2721
:100620000E9425030C9476040E94680438F00E940E
:100630006F0420F039F49F3F19F426F40C946504FC
:100640000EF4E095E7FB0C945F04E92F0E94870409
:1006500058F3BA17620773078407950720F079F4F7
:10066000A6F50C94A9040EF4E0950B2EBA2FA02D3C
:100670000B01B90190010C01CA01A0011124FF274F
:10068000591B99F0593F50F4503E68F11A16F0404A
:10069000A22F232F342F4427585FF3CF4695379549
:1006A0002795A795F0405395C9F77EF41F16BA0B0E
:1006B000620B730B840BBAF09150A1F0FF0FBB1FBC
:1006C000661F771F881FC2F70EC0BA0F621F731F05
:1006D000841F48F4879577956795B795F7959E3F62
:1006E00008F0B0CF9395880F08F09927EE0F9795F3
:1006F000879508950E948E030C9476040E946F04DF
:1007000058F00E94680440F029F45F3F29F00C94EF
:100710005F0451110C94AA040C9465040E94870490
:1007200068F39923B1F3552391F3951B550BBB2720
:10073000AA2762177307840738F09F5F5F4F220F65
:10074000331F441FAA1FA9F335D00E2E3AF0E0E85C
:1007500032D091505040E695001CCAF72BD0FE2FA6
:1007600029D0660F771F881FBB1F2617370748073A
:10077000AB07B0E809F0BB0B802DBF01FF279358F2
:100780005F4F3AF09E3F510578F00C945F040C9453
:10079000AA045F3FE4F3983ED4F386957795679576
:1007A000B795F7959F5FC9F7880F911D9695879527
:1007B00097F90895E1E0660F771F881FBB1F621746
:1007C00073078407BA0720F0621B730B840BBA0B04
:1007D000EE1F88F7E09508950E94F3036894B11125
:1007E0000C94AA0408950E948F0488F09F5798F0F3
:1007F000B92F9927B751B0F0E1F0660F771F881F26
:10080000991F1AF0BA95C9F714C0B13091F00E943F
:10081000A904B1E008950C94A904672F782F8827C4
:10082000B85F39F0B93FCCF3869577956795B39566
:10083000D9F73EF490958095709561957F4F8F4FD5
:100840009F4F0895E89409C097FB3EF490958095DA
:10085000709561957F4F8F4F9F4F9923A9F0F92F86
:1008600096E9BB279395F695879577956795B79504
:10087000F111F8CFFAF4BB0F11F460FF1BC06F5FEA
:100880007F4F8F4F9F4F16C0882311F096E911C0FC
:10089000772321F09EE8872F762F05C0662371F01D
:1008A00096E8862F70E060E02AF09A95660F771F31
:1008B000881FDAF7880F9695879597F9089597F925
:1008C0009F6780E870E060E008959FEF80EC0895F6
:1008D00000240A941616170618060906089500241F
:1008E0000A9412161306140605060895092E039499
:1008F000000C11F4882352F0BB0F40F4BF2B11F40D
:1009000060FF04C06F5F7F4F8F4F9F4F089557FD6B
:100910009058440F551F59F05F3F71F04795880F6D
:1009200097FB991F61F09F3F79F087950895121604
:1009300013061406551FF2CF4695F1DF08C01616B0
:1009400017061806991FF1CF869571056105089461
:100950000895E894BB2766277727CB0197F9089578
:100960000E94680508F48FEF08950E94C8040C9453
:1009700076040E94680438F00E946F0420F09523EA
:1009800011F00C945F040C94650411240C94AA04D7
:100990000E94870470F3959FC1F3950F50E0551F97
:1009A000629FF001729FBB27F00DB11D639FAA27C4
:1009B000F00DB11DAA1F649F6627B00DA11D661F13
:1009C000829F2227B00DA11D621F739FB00DA11D34
:1009D000621F839FA00D611D221F749F3327A00DEE
:1009E000611D231F849F600D211D822F762F6A2F8A
:1009F00011249F5750409AF0F1F088234AF0EE0FEF
:100A0000FF1FBB1F661F771F881F91505040A9F71B
:100A10009E3F510580F00C945F040C94AA045F3F44
:100A2000E4F3983ED4F3869577956795B795F79557
:100A3000E7959F5FC1F7FE2B880F911D96958795CF
:100A400097F9089519F416F40C9465040C948C0528
:100A50000E948F04B8F39923C9F3B6F39F57550B3F
:100A600087FF0E949A050024A0E640EA9001805882
:100A70005695979528F4805C660F771F881F20F0A5
:100A800026173707480730F4621B730B840B2029A5
:100A900031294A2BA69517940794202531254A27FA
:100AA00058F7660F771F881F20F02617370748076B
:100AB00030F4620B730B840B200D311D411DA0958A
:100AC00081F7B901842F9158880F969587950895DD
:100AD000990F0008550FAA0BE0E8FEEF161617064F
:100AE000E807F907C0F012161306E407F50798F0B7
:100AF000621B730B840B950B39F40A2661F0232BD0
:100B0000242B252B21F408950A2609F4A140A6954B
:100B10008FEF811D811D08959F3F31F0915020F48A
:100B2000879577956795B795880F911D96958795C9
:100B300097F9089591505040660F771F881FD2F79C
:060B40000895F894FFCFB8
:00000001FF
