:100000000C942A000C9434000C9434000C943400AA
:100010000C9434000C9434000C9434000C94340090
:100020000C9434000C9434000C9434000C94340080
:100030000C9434000C9434000C9434000C94340070
:100040000C9434000C9434000C9434000C94340060
:100050000C94340011241FBECFE5D4E0DEBFCDBF29
:100060000E94E3010C94C9060C9400005F9BFECF34
:100070008CB190E008955D9BFECF8CB908954F92AE
:100080005F926F927F92AF92BF92CF92DF92EF9288
:10009000FF920F931F93CF93DF93CDB7DEB72897CF
:1000A0000FB6F894DEBF0FBECDBF29013A01ED8235
:1000B000FE820F8318870E94300469837A838B83C2
:1000C0009C83A6019501698D7A8D8B8D9C8D0E94F4
:1000D00030049B01AC0169817A818B819C810E94F3
:1000E000010669837A838B839C83A3019201C801F3
:1000F000B7010E9430049B01AC0169817A818B8138
:100100009C810E94A204A60195010E9431042896B8
:100110000FB6F894DEBF0FBECDBFDF91CF911F9118
:100120000F91FF90EF90DF90CF90BF90AF907F90B6
:100130006F905F904F9008954F925F926F927F9271
:100140008F929F92AF92BF92EF92FF920F931F9365
:100150002B013C0149015A01CA01B9010E94010663
:1001600020E030E040E05FE30E9401069B01AC012B
:1001700060E070E080E89FE30E9430040E94740613
:10018000A30192010E940106F801608371838283BA
:100190009383A3019201C301B2010E94010620E0F2
:1001A00030E040E05FE30E9401069B01AC0160E0AB
:1001B00070E080E89FE30E9430040E9474069B0177
:1001C000AC01C501B4010E940106F701608371838F
:1001D000828393831F910F91FF90EF90BF90AF9018
:1001E0009F908F907F906F905F904F9008954F9267
:1001F0005F926F927F928F929F92AF92BF92CF92B7
:10020000DF92EF92FF920F931F93CF93DF93CDB7BF
:10021000DEB72E970FB6F894DEBF0FBECDBF4B01F1
:100220005C0129013A01FE86ED869B01AC010E942A
:1002300001066B017C01A3019201C301B2010E947E
:10024000010669837A838B839C8320E030E040E061
:1002500050E4C701B6010E94310429813A814B81E3
:100260005C810E9430046D837E838F839887A70111
:10027000960160E070E080E090E40E943004298103
:100280003A814B815C810E9431046B017C0123EF38
:1002900034E045E350E4C501B4010E9401064B017E
:1002A0005C0123EF34E045E350E4C301B2010E9456
:1002B000010669837A838B839C83A50194016D81F8
:1002C0007E818F8198850E9431040E94740669871F
:1002D0007A878B879C87A50194016D817E818F81B0
:1002E00098850E9430040E9474062B013C0120E096
:1002F00030E040E05FE369857A858B859C850E94CC
:1003000001064B015C0120E030E040E05FE3C30107
:10031000B2010E9401069B01AC01C501B4010E941B
:100320003004F801608371838283938329813A8149
:100330004B815C81C701B6010E9431040E947406A2
:100340004B015C0129813A814B815C81C701B60177
:100350000E9430040E9474062B013C0120E030E032
:1003600040E05FE3C501B4010E9401066B017C011E
:1003700020E030E040E05FE3C301B2010E940106EB
:100380009B01AC01C701B6010E943004ED85FE85DA
:1003900060837183828393832E960FB6F894DEBFB9
:1003A0000FBECDBFDF91CF911F910F91FF90EF90C6
:1003B000DF90CF90BF90AF909F908F907F906F9085
:1003C0005F904F900895CF93DF93CDB7DEB76097DE
:1003D0000FB6F894DEBF0FBECDBF83B7896683BF6B
:1003E00087B38B6087BB85B5896685BD81B380691E
:1003F00081BBD09AC098D89882E08BB910BC8FEF9F
:1004000089B980E18AB986E880BDC12CD12CE12C64
:10041000F12C0E943600419709F051C00E9436002D
:100420001C010E943600182F0E943600819709F0A7
:1004300046C01E871D862D853E85222A332AB1019E
:10044000032C000C880B990B0E944C052B013C01DE
:100450000E9436008C010E943600888B1F866F85B3
:100460007889602B712B072E000C880B990B0E944A
:100470004C054B015C01B7010F2C000C880B990B4C
:100480000E944C0569877A878B879C879B01AC010A
:10049000C301B2010E949D04811116C029853A85CD
:1004A0004B855C85C501B4010E949D0481110CC07F
:1004B0003FEFC31AD30A85E0C816D10444F01CBE2E
:1004C00013BCD898C098A5CFC12CD12C01C017015E
:1004D00020E030E040E054E4C301B2010E94300467
:1004E0002B013C01A501940160E070E080E094E400
:1004F0000E9430044B015C01A30192010E94A204FE
:1005000069877A878B879C872DEC3CEC4CE451E41F
:100510000E94FC0587FD0FC02DEC3CEC4CE451EC37
:1005200069857A858B859C850E949D0418161CF030
:10053000412C512C3201A3019201C501B4010E944A
:10054000A20469877A878B879C8720E030E048EC9B
:100550005EE30E949D0418167CF020E030E048EC39
:100560005EEB69857A858B859C850E94FC0587FDFD
:1005700003C0812C912C540120E030E040E054E491
:10058000C501B4010E9431049B01AC010E943104F9
:1005900020E030E040E85AE30E94010620E030E02D
:1005A00040E85FE30E9430044B015C0120E030E052
:1005B00040E054E4C301B2010E9431049B01AC014C
:1005C0000E94310420E030E040E85AE30E94010636
:1005D00020E030E040E85FE30E9430049E012F5F9E
:1005E0003F4F79018E010B5F1F4FA50194010E94BF
:1005F0009C004D805E806F80788424EF3DEF44E363
:100600005FE369817A818B819C810E9401064B01A5
:100610005C01C301B201905824EF3DEF44E35FE376
:100620000E940106A50194010E94310469877A871E
:100630008B879C8724EF3DEF44E35FE3C301B20166
:100640000E940106A50194010E94310429853A8582
:100650004B855C850E94F70021E134EC4DE75FE3B8
:100660006D817E818F8198850E94310420E030E089
:100670004FEF53E40E94010621E134EC4DEF5FE3BC
:100680000E94A20420E030E04FE753E40E943004CF
:100690002B013C0121E134EC4DE75FE369817A8174
:1006A0008B819C810E94310420E030E04FEF53E4C5
:1006B0000E94010621E134EC4DEF5FE30E94A204A9
:1006C00020E030E04FE753E40E94300420E030E0C7
:1006D00048E452E40E9431044B015C0120E030E028
:1006E0004CE553E4C301B2010E94FC0520E030E078
:1006F0004CE553E487FF32C0C501B4010E94FC05FC
:1007000087FF84C020E030E040EA51E4C301B20139
:100710000E949D0487FF0AC020E030E040EA51ECCF
:10072000C301B2010E94FC051816B4F120E030E0CC
:1007300040EA51E4C501B4010E949D0487FF1CC03A
:1007400020E030E040EA51ECC501B4010E94FC0514
:10075000181694F4812C912C54010EC0C501B401DB
:100760000E94FC05412C512C2FE7622E23E4722EAF
:1007700087FDC8CF5301420120E030E0A901C30149
:10078000B2010E94FC0518160CF5C301B2010E94CB
:1007900014056CBFC09A21C020E030E040EA51E46B
:1007A000C501B4010E949D0487FF52C020E030E0E3
:1007B00040EA51ECC501B4010E94FC0518160CF08A
:1007C0004BC0812C912C540124013501C301B2018D
:1007D0000E94140561956CBFC09820E030E0A9012B
:1007E000C501B4010E94FC0518163CF4C501B40112
:1007F0000E94140563BDD89A07C0C501B4010E94C8
:100800001405619563BDD898710103CE20E030E0F6
:1008100040EA51E4C301B2010E949D0487FD07C074
:10082000812C912C3FE7A32E33E4B32EA5CF20E0FB
:1008300030E040EA51ECC301B2010E94FC05812C7A
:10084000912C9FE7A92E93E4B92E18160CF06ECFC9
:10085000412C512C3201BACF412C512C32018CCF7A
:100860005058BB27AA270E9448040C94C2050E9436
:10087000B40538F00E94BB0520F039F49F3F19F40D
:1008800026F40C94B1050EF4E095E7FB0C94AB054F
:10089000E92F0E94D30558F3BA176207730784073C
:1008A000950720F079F4A6F50C94F5050EF4E09583
:1008B0000B2EBA2FA02D0B01B90190010C01CA011A
:1008C000A0011124FF27591B99F0593F50F4503EC5
:1008D00068F11A16F040A22F232F342F4427585FB7
:1008E000F3CF469537952795A795F0405395C9F7CF
:1008F0007EF41F16BA0B620B730B840BBAF0915087
:10090000A1F0FF0FBB1F661F771F881FC2F70EC025
:10091000BA0F621F731F841F48F4879577956795F8
:10092000B795F7959E3F08F0B0CF9395880F08F0E4
:100930009927EE0F9795879508950E94870508F4EB
:1009400081E008950E94B6040C94C2050E94BB0584
:1009500058F00E94B40540F029F45F3F29F00C9450
:10096000AB0551110C94F6050C94B1050E94D3050A
:1009700068F39923B1F3552391F3951B550BBB27CE
:10098000AA2762177307840738F09F5F5F4F220F13
:10099000331F441FAA1FA9F335D00E2E3AF0E0E80A
:1009A00032D091505040E695001CCAF72BD0FE2F54
:1009B00029D0660F771F881FBB1F261737074807E8
:1009C000AB07B0E809F0BB0B802DBF01FF279358A0
:1009D0005F4F3AF09E3F510578F00C94AB050C94B4
:1009E000F6055F3FE4F3983ED4F3869577956795D7
:1009F000B795F7959F5FC9F7880F911D96958795D5
:100A000097F90895E1E0660F771F881FBB1F6217F3
:100A100073078407BA0720F0621B730B840BBA0BB1
:100A2000EE1F88F7E09508950E941B056894B111A8
:100A30000C94F60508950E94DB0588F09F5798F006
:100A4000B92F9927B751B0F0E1F0660F771F881FD3
:100A5000991F1AF0BA95C9F714C0B13091F00E94ED
:100A6000F505B1E008950C94F505672F782F8827D8
:100A7000B85F39F0B93FCCF3869577956795B39514
:100A8000D9F73EF490958095709561957F4F8F4F83
:100A90009F4F0895E89409C097FB3EF49095809588
:100AA000709561957F4F8F4F9F4F9923A9F0F92F34
:100AB00096E9BB279395F695879577956795B795B2
:100AC000F111F8CFFAF4BB0F11F460FF1BC06F5F98
:100AD0007F4F8F4F9F4F16C0882311F096E911C0AA
:100AE000772321F09EE8872F762F05C0662371F0CB
:100AF00096E8862F70E060E02AF09A95660F771FDF
:100B0000881FDAF7880F9695879597F90895990FBA
:100B10000008550FAA0BE0E8FEEF16161706E807C7
:100B2000F907C0F012161306E407F50798F0621BE8
:100B3000730B840B950B39F40A2661F0232B242BBD
:100B4000252B21F408950A2609F4A140A6958FEFDC
:100B5000811D811D089597F99F6780E870E060E02E
:100B600008959FEF80EC089500240A941616170646
:100B700018060906089500240A941216130614068E
:100B800005060895092E0394000C11F4882352F0F1
:100B9000BB0F40F4BF2B11F460FF04C06F5F7F4FA9
:100BA0008F4F9F4F089557FD9058440F551F59F090
:100BB0005F3F71F04795880F97FB991F61F09F3F4A
:100BC00079F087950895121613061406551FF2CF73
:100BD0004695F1DF08C0161617061806991FF1CFC3
:100BE00086957105610508940895E894BB276627EA
:100BF0007727CB0197F908950E94870508F48FEFB6
:100C000008950E9414060C94C2050E94B40538F0A1
:100C10000E94BB0520F0952311F00C94AB050C94B9
:100C2000B10511240C94F6050E94D30570F3959F2D
:100C3000C1F3950F50E0551F629FF001729FBB27D3
:100C4000F00DB11D639FAA27F00DB11DAA1F649F6F
:100C50006627B00DA11D661F829F2227B00DA11D22
:100C6000621F739FB00DA11D621F839FA00D611DA8
:100C7000221F749F3327A00D611D231F849F600DC9
:100C8000211D822F762F6A2F11249F5750409AF0F2
:100C9000F1F088234AF0EE0FFF1FBB1F661F771F7E
:100CA000881F91505040A9F79E3F510580F00C9449
:100CB000AB050C94F6055F3FE4F3983ED4F38695BC
:100CC00077956795B795F795E7959F5FC1F7FE2BE9
:100CD000880F911D9695879597F9089519F416F444
:100CE0000C94B1050C94B4060E94DB05B8F399236B
:100CF000C9F3B6F39F57550B87FF0E94C206002425
:100D0000A0E640EA900180585695979528F4805CBB
:100D1000660F771F881F20F026173707480730F423
:100D2000621B730B840B202931294A2BA69517943B
:100D30000794202531254A2758F7660F771F881F0B
:100D400020F026173707480730F4620B730B840B2B
:100D5000200D311D411DA09581F7B901842F9158B7
:100D6000880F9695879508959F3F31F0915020F414
:100D7000879577956795B795880F911D9695879577
:100D800097F9089591505040660F771F881FD2F74A
:060D90000895F894FFCF66
:00000001FF
