:100000000C942A000C9434000C9434000C943400AA
:100010000C9434000C9434000C9434000C94340090
:100020000C9434000C9434000C9434000C94340080
:100030000C9434000C9434000C9434000C94340070
:100040000C9434000C9434000C9434000C94340060
:100050000C94340011241FBECFE5D8E0DEBFCDBF25
:100060000E9480000C9440010C9400005F9BFECF26
:100070008CB190E008955D9BFECF8CB908954F92AE
:100080005F926F927F92AF92BF92CF92DF92EF9288
:10009000FF920F931F93CF93DF93CDB7DEB7290164
:1000A0003A019B01AC012419350946095709898990
:1000B0009A89AB89BC89BC01CD016A197B098C097D
:1000C0009D090E94D500A801970124193509460908
:1000D00057090E94E500CA01B9016A0D7B1D8C1DFC
:1000E0009D1DDF91CF911F910F91FF90EF90DF90B9
:1000F000CF90BF90AF907F906F905F904F9008959A
:1001000087B38B6087BB81B3806981BBD09AC0986D
:10011000C3989798D89810BC83E389B980E18AB9CD
:1001200086E880BD0E94360081369105C1F40E94A8
:100130003600EC01E0970E943600C097C130D1052F
:1001400011F4C09A03C0CD2B09F4C09881309105F9
:1001500011F4C39A08C0892B31F4C39804C0C39822
:100160009798C098D8980E94360082369105C1F4BD
:100170000E943600EC01E0970E943600C097C13023
:10018000D10511F4D89A03C0CD2B09F4D898813049
:10019000910511F4979AC6CF892B21F69798C2CF73
:1001A000C3989798C098D898BDCFDB018F939F9341
:1001B0000E940401BF91AF91A29F800D911DA39F4A
:1001C000900DB29F900D11240895052E97FB1EF4FB
:1001D00000940E94FC0057FD07D00E940F0107FC0D
:1001E00003D04EF40C94FC00509540953095219529
:1001F0003F4F4F4F5F4F0895909580957095619553
:100200007F4F8F4F9F4F08950E943101A59F900D02
:10021000B49F900DA49F800D911D11240895A1E21B
:100220001A2EAA1BBB1BFD010DC0AA1FBB1FEE1F70
:10023000FF1FA217B307E407F50720F0A21BB30BBB
:10024000E40BF50B661F771F881F991F1A9469F737
:1002500060957095809590959B01AC01BD01CF0193
:100260000895A29FB001B39FC001A39F700D811D8F
:100270001124911DB29F700D811D1124911D0895AF
:04028000F894FFCF20
:00000001FF
